:200000000C94BE000C94DD000C94DD000C94DD000C94DD000C94DD000C94DD000C94DD0017
:200020000C94DD000C94DD000C94C6090C94DD000C94DD000C94FA090C94DD000C94A313E7
:200040000C94DD000C94DD000C94DD000C94DD000C94DD000C94DD000C94DD000C94DD00B8
:200060000C94DD000C94E6120C94DD000C94DD000C94DD000C948C140C94DD000C94DD00BA
:200080000C94B11A0C94C71A0C94DD000C94241A0C94DD000C94DD000C94DD000C94DD0025
:2000A0000C94DD000C94DD000C94F8190C940E1A0C94DD000C9461190C94DD000C94DD003C
:2000C0000C94DD000C94DD000C94DD000C94DD000C94DD000C94DD000C94DD000C94DD0038
:2000E0000C94DD00730C570C250CE80CB20CDB0CFC0BE00BB30B9B0B3C0B3C0B3C0B3C0B65
:200100003C0B3C0B8F0B840B3C0B3C0B3C0B3C0B3C0B3C0B3C0B3C0B3C0B3C0B3C0B3C0BD4
:20012000B30B250C780B730B3C0B3C0B3C0B3C0B3C0B3C0B3C0B3C0B3C0B3C0B3C0B3C0B7B
:20014000B20CFC0B3C0B3C0B730CDB0C9C0C084AD73B3BCE016E84BCBFFDC12F3D6C743128
:200160009ABD56833DDA3D00C77F11BED9E4BB4C3E916BAAAABE000000803F0011241FBE05
:20018000CFEFD1E2DEBFCDBF00E00CBF13E0A0E0B2E0E2E6F7E502C005900D92A432B107ED
:2001A000D9F715E0A4E2B3E001C01D92AB36B107E1F70E94DF000C94B02B0C940000BF9293
:2001C000CF92DF92EF92FF920F931F93CF93DF930E945D130E942D200E94DD1A0E945C1467
:2001E0007B018C01CC24DD24DA943EEFB32ECFEFD0E00E943813809337050E946D1F0E940F
:20020000A9240E945C146E197F09800B910B6E312BE4720720E0820720E0920708F092C036
:200220000E942A0B0E940A0680913705863009F06EC090910F05913009F4AAC0913008F0F5
:2002400092C280E00E94271980E00E94ED180E940E1ED0920C02D0920D02D0920E028FEF62
:200260000E94351D80910D020E94491D80910E020E945D1D449A459A90913705992309F056
:200280005CC080E0C81609F4B4CF0E94EE1C0E94F51C80910B01816080930B0180910B01EB
:2002A000826080930B0180910B01846080930B01A39A80910B01806180930B0180910B01A6
:2002C000806280930B0180910B01806480930B0180910B01806880930B01D0920C02D09207
:2002E0000D02D0920E028FEF0E94351D80910D020E94491D80910E020E945D1D80E00E94A4
:20030000271980E00E94ED18C090370572CF60E00E94B51290913705892F933021F1943072
:2003200048F5913009F4B9C19230F8F40E949C1790913705992309F4A4CF0E9434188091BD
:200340003705A0CF0E94651480913705982F9450923008F427C2863009F4EEC10E945C14C4
:200360007B018C015DCF0E94EA1C0E94F11C9091370584CF953009F4C8C1953008F492C1E2
:20038000963009F07BCF90910F05913009F056CF0E94271E80910C020E94351D80910D0226
:2003A0000E94491D80910E020E945D1D4498459880911205882309F4F2C1109212058091F2
:2003C0005F0361E00E94B5128091600361E00E94B51280912F039091300361E00E94B512B2
:2003E00080912F0390913003892F61E00E94B5128091610361E00E94B5128091620361E02E
:200400000E94B512809133039091340361E00E94B5128091330390913403892F61E00E94F0
:20042000B5128091630361E00E94B5128091640361E00E94B512809137039091380361E0CA
:200440000E94B5128091370390913803892F61E00E94B5128091650361E00E94B5128091F6
:20046000660361E00E94B51280913B0390913C0361E00E94B51280913B0390913C03892FA9
:2004800061E00E94B5128091670361E00E94B5128091680361E00E94B51280913F039091F3
:2004A000400361E00E94B51280913F0390914003892F61E00E94B5128091690361E00E94D6
:2004C000B51280916A0361E00E94B512809143039091440361E00E94B5128091430390914C
:2004E0004403892F61E00E94B51280916B0361E00E94B51280916C0361E00E94B5128091EF
:2005000047039091480361E00E94B5128091470390914803892F61E00E94B51280916D03D1
:2005200061E00E94B51280916E0361E00E94B51280914B0390914C0361E00E94B51280915B
:200540004B0390914C03892F61E00E94B51280916F0361E00E94B5128091700361E00E94E7
:20056000B51280914F039091500361E00E94B51280914F0390915003892F61E00E94B512FA
:200580008091710361E00E94B5128091720361E00E94B512809153039091540361E00E943A
:2005A000B5128091530390915403892F61E00E94B5128091730361E00E94B512809174037A
:2005C00061E00E94B512809157039091580361E00E94B5128091570390915803892F61E000
:2005E0000E94B5128091750361E00E94B5128091760361E00E94B51280915B0390915C033C
:2006000061E00E94B51280915B0390915C03892F61E00E94B5128091180561E00E94B51207
:200620008091190561E00E94B51280911A0561E00E94B51280911B0561E00E94B51280911B
:200640001C0561E00E94B51280911D0561E00E94B5128091130561E00E94B51280913705D2
:2006600061E00E94B5128091030190E0807290709595879595958795959587959595879541
:200680009595879561E00E94B5128091050461E00E94B51290913705F1CD0E94EA1C9091C2
:2006A0003705ECCD80910B018E7F80930B0180910B018D7F80930B0180910B018B7F80937A
:2006C0000B01A39880910B018F7E80930B0180910B018F7D80930B0180910B018F7B809308
:2006E0000B0180910B018F7780930B0180910C020E94351D80910D020E94491D80910E0250
:200700000E945D1D90913705B9CD80910C020E94351D80910D020E94491D80910E020E94DC
:200720005D1D0E94EA1C89E10E94ED1889E10E94271990913705A2CD80910F05813009F09F
:200740000DCE90910504923008F008CE909108049923F1F5B0920C02D0920D02D0920E0202
:2007600080930804FBCD923011F0982F87CD909110059923D1F30E94271E6091030470911E
:2007800004048EEF9FE00E94E92A0E940E1E8AEA61E00E94B5121092100510920F05909126
:2007A00037056CCD0E942A29BE010E94922880930C020E942A29BE010E94922880930D0261
:2007C0000E942A29BE010E94922880930E02C6CD913061F0923009F0C1CDD0920C02D09226
:2007E0000D02B0920E0210920804B8CDD0920C02B0920D02D0920E0282E080930804AECD36
:2008000081E090E021E00DB407FC0AC0019637E280319307C0F3209306040DB407FEF6CF82
:20082000089584B1807F84B984B1876084B980E58CBD8DB581608DBD08951CBC1DBC08954B
:20084000442309F1A62FB72FE82FF92F91E021912EBD21E030E00DB407FC0BC02F5F3F4F73
:2008600057E220313507B8F3909306040DB407FEF5CF20910604222331F42EB52D932E2F2B
:20088000281B241720F308956623E9F0E82FF92F91E021912EBD21E030E00DB407FC0BC0DB
:2008A0002F5F3F4F47E220313407B8F3909306040DB407FEF5CF20910604222321F42E2F93
:2008C000281B261730F308958EBD81E090E021E00DB407FC0AC0019637E280319307C0F37F
:2008E000209306040DB407FEF6CF8EB508950F931F93DF93CF9300D0CDB7DEB7289880E29D
:200900000E9464048DE00E946404289A289883E20E94640481E00E946404289A8091030420
:200920009091040499838A831B82289880E30E9464048E010F5F1F4FC80163E00E9444043A
:20094000289A28988AE20E946404C80163E00E944404289A289881E20E94640481E00E94B7
:200960006404289A289882E20E94640481E00E946404289A289884E20E94640482E10E94BD
:200980006404289A289885E20E94640488E20E946404289A289881E30E9464048DE00E9489
:2009A0006404289A289880E50E94640483E70E946404289A28988CE30E94640481E00E946C
:2009C0006404289A28988DE30E94640486E00E946404289A289880E20E9464048FE00E9444
:2009E0006404289A0F900F900F90CF91DF911F910F9108952C9A289A0E9477040895CF938F
:200A0000DF93EC012C9828988AE20E946404CE0165E00E944404289A2C9ADF91CF9108958A
:200A2000CF93DF93EC01289880E30E946404CE0165E00E944404289ADF91CF91089580918A
:200A40003E05882311F080E0089528988FEF0E946404289A80740895DF93CF930F92CDB716
:200A6000DEB71982289887E10E946404BE016F5F7F4FCB0141E00E942004289A8981817049
:200A80000F90CF91DF910895289882EE0E946404289A0895CF93DF93EC01289881E60E9427
:200AA0006404CE01BE014DE00E942004289A289887E20E94640480E40E946404289ADF91B8
:200AC000CF910895DF93CF930F92CDB7DEB728988F71806269830E9464046981862F0E94B2
:200AE0006404289A0F90CF91DF9108950F931F93DF93CF930F92CDB7DEB78B0128988F7192
:200B000049830E946404C801B80149810E942004289A0F90CF91DF911F910F9108950F932D
:200B20001F93DF93CF930F92CDB7DEB78B0128988F71806249830E946404C8014981642F4B
:200B40000E944404289A0F90CF91DF911F910F9108950F931F93DF93CF930F92CDB7DEB7AB
:200B60008C0180913E058823E1F72C9881E080933E05289880E269830E9464048AE40E946E
:200B80006404289A289881EE0E946404289A289880EA0E946404C80169810E944404289A9D
:200BA0002C9A0F90CF91DF911F910F910895EF92FF920F931F93DF93CF930F92CDB7DEB71F
:200BC000182F062F289881EE99830E946404289A289888EA0E9464049981002361F0612F28
:200BE000792F7B01F70181917F010E9464048E2D811B8017B8F3289A0F90CF91DF911F91C3
:200C00000F91FF90EF900895289881EE0E946404289A08951F93CF93DF9380913E0588236C
:200C200021F0DF91CF911F91089528988FEF0E946404289A86FFF5CF809105048260809324
:200C40000504289887E20E94640480E70E946404289A289881E60E9464048BE595E0BC0152
:200C60004DE00E942004289A289887E20E94640480E40E946404289A289882EE0E94640422
:200C8000289A60915B05662309F4B8C150915F0540916005E0915C0570915D05252F30E02E
:200CA0002F7730703093020420930104842F90E08F779070909300048093FF0357FDA6C24C
:200CC000220F331F220F331F309521953F4F3093F0032093EF0347FDA3C2880F991F880F1B
:200CE000991F909581959F4F9093F2038093F10342E02130340744F040E052E05093F003EA
:200D00004093EF0320E032E042E08130940734F080E092E09093F2038093F1034EEF2030EC
:200D2000340734F440E05EEF5093F0034093EF032EEF8030920734F480E09EEF9093F203B5
:200D40008093F103262F30E03093540520935305F0E0F0935605E0935505C72FD0E0D0937C
:200D60005805C0935705922F8827821B930B24E630E0B9010E947E28162F109510930C0205
:200D80005E2F44274E1B5F0BCA01B9010E947E28609560930E025C2F44274C1B5D0BCA0133
:200DA000B9010E947E28609560930D02812F0E94351D80910D020E94491D80910E020E94AB
:200DC0005D1D80915E0580FF25C1449881FF25C14598982F82FF25C121E02093120284FD2A
:200DE00024C186FF29C181E080933B0597FD28C110923C058091610580FF29C180910B018E
:200E00008E7F80930B018091610581FF29C180910B018D7F80930B018091610582FF29C19B
:200E200080910B018B7F80930B018091610583FF29C1A3988091610584FF29C180910B014D
:200E40008F7E80930B018091610585FF29C180910B018F7D80930B018091610586FF29C153
:200E600080910B018F7B80930B018091610587FD29C180910B01806880930B0180910B0205
:200E800080934305843009F429C1853008F066C1833009F065C090915F038091600390939D
:200EA0004405809345059091610380916203909346058093470590916303809164039093A2
:200EC000480580934905909165038091660390934A0580934B059091690380916A0390935E
:200EE0004C0580934D0590916B0380916C0390934E0580934F0590916D0380916E0390931A
:200F000050058093510530910301809103012091030190E080729070959587959595879596
:200F2000959587959595879595958795880F991F221F2227221F220F220F282B832F90E0EE
:200F40008071907095958795959587959595879595958795282B2093520584E080930B02A7
:200F6000289881EE0E946404289A289888EA0E946404809143050E946404809144050E94DB
:200F80006404809145050E946404809146050E946404809147050E946404809148050E94B7
:200FA0006404809149050E94640480914A050E94640480914B050E94640480914C050E9487
:200FC000640480914D050E94640480914E050E94640480914F050E946404809150050E9457
:200FE0006404809151050E946404809152050E946404289ADF91CF911F910895E0915C05F5
:20100000EE2309F416C150915F054091600570915D0544CE449A81FDDBCE459A982F82FDD1
:20102000DBCE1092120284FFDCCE0E942D2090915E05892F86FDD7CE10923B0597FFD8CEB3
:2010400081E080933C058091610580FDD7CE80910B01816080930B018091610581FDD7CE8B
:2010600080910B01826080930B018091610582FDD7CE80910B01846080930B018091610520
:2010800083FDD7CEA39A8091610584FDD7CE80910B01806180930B018091610585FDD7CE96
:2010A00080910B01806280930B018091610586FDD7CE80910B01806480930B0180916105DC
:2010C00087FFD7CE80910B018F7780930B0180910B0280934305843009F0D7CE909167034D
:2010E00080916803909344058093450590916F038091700390934605809347059091710332
:20110000809172039093480580934905909173038091740390934A0580934B0590917503EB
:201120008091760390934C0580934D05909118058091190590934E0580934F0590911A05C2
:2011400080911B059093500580935105809113058093520585E080930B0202CF853009F4E2
:201160007DC0863009F0FCCE80913F03909140038093440580913F03909140039093450582
:2011800080914F03909150038093460580914F0390915003909347058091530390915403F5
:2011A00080934805809153039091540390934905809157039091580380934A0580915703CB
:2011C0009091580390934B0580915B0390915C0380934C0580915B0390915C0390934D0569
:2011E00090911C0580911D0590934E0580934F059091C3038091C4039093500580935105FD
:201200001092520583E080930B02AACE220F331F220F331F3093F0032093EF0347FF5DCD09
:20122000880F991F880F991F9093F2038093F1035FCD70915D05772361F480915E05883047
:2012400041F450915F05552309F464C04091600525CD50915F054091600520CD80912F03A8
:20126000909130038093440580912F039091300390934505809133039091340380934605BD
:20128000809133039091340390934705809137039091380380934805809137039091380392
:2012A0009093490580913B0390913C0380934A0580913B0390913C0390934B058091430333
:2012C0009091440380934C05809143039091440390934D05809147039091480380934E05E1
:2012E000809147039091480390934F0580914B0390914C038093500580914B0390914C03AA
:2013000090935105809137058093520586E080930B0226CE40916005442379F01092020475
:2013200010920104842F90E08F779070909300048093FF0320E030E0C3CC8CE30E94AD1331
:2013400050915F054091600560915B05E0915C0570915D05A3CCCF93DF93C8E6D0E0188251
:20136000ACE6B0E01C92E0EBF0E010821092B100109270008881826088838C9180688C93F1
:20138000808182608083DF91CF9108951F920F920FB60F9211248F9380911202882321F109
:2013A0008091030186FD20C0809168008D7F8093680080916C008F7780936C0081E080933F
:2013C00013028DE08093B3008091B10086608093B1008091700082608093700010922603A8
:2013E00010922703109228038F910F900FBE0F901F9018951F920F920FB60F9211242F931E
:201400003F934F935F938F939F938091B100887F8093B100809113028823A9F080910301C6
:2014200086FF65C08091680082608093680080916C00806880936C008FEF9FEF9093020215
:201440008093010249C080910102909102022FEF8F3F920709F463C08130910509F498C0F3
:201460009C01225030402530310508F467C09C01275030402630310508F0BDC026E32093FE
:20148000B3002091B10026602093B100209170002260209370002091030130E0207430708E
:2014A0000024220F331F001C220F331F001C232F302D4CE050E0481B590B02C0220F331FB3
:2014C0004A95E2F740912603420F40932603019690930202809301029F918F915F914F9119
:2014E0003F912F910F900FBE0F901F9018951092130283E38093B3008091B1008660809357
:20150000B1008091700082608093700080910102909102022FEF8F3F9207C9F6DDCF20915A
:20152000030126FF52C02091680022602093680020916C00206820936C00CECF26E320939D
:20154000B3002091B10026602093B100209170002260209370002091030130E020743070CD
:201560000024220F331F001C220F331F001C232F302D46E050E0481B590B02C0220F331FF8
:201580004A95E2F740912703420F409327039FCF2091030130E020743070022E232F000C55
:2015A000221F330B000C221F331F2093280326E32093B3002091B10026602093B1002091C3
:2015C000700022602093700082CF8CE18093B3008091B10086608093B100809170008260A3
:2015E0008093700010922603109227031092280381E090E06DCF8D30910509F068CF1092D2
:2016000070008091680082608093680080916C00806880936C008FEF9FEF9093020280935A
:20162000010280912803809300028091270380932403809126038093250381E080931405DF
:201640004BCF809100020895809124030895809125030895809112028823B1F18091140579
:20166000882391F1E0912503E093130510921405F0E0E533F10548F12091EF033091F003F0
:201680008091F1039091F20337FD27C03595279535952795309302042093010497FD09C02A
:2016A0009595879595958795909300048093FF030895909581959F4F959587959595879510
:2016C000909300048093FF030895EE58FF4FEE0FFF1F0590F491E02D1994309521953F4FA5
:2016E000D5CF80933B0510923C05C6CF10923B0581E080933C052091EF033091F00380917C
:20170000F1039091F203C0CF10923B052091EF033091F0038091F1039091F203B5CF81E0F7
:2017200080933B052091EF033091F0038091F1039091F203A9CF8091F1039091F2034E976C
:201740009093F2038093F1032EEF803092079CF580E09EEF9093F2038093F1032091EF03C4
:201760003091F00391CF2091EF033091F0038091ED039091EE032817390724F02091F103B3
:201780003091F2032E5130403093F0032093EF03C9013093F2032093F1034EEF2030340758
:2017A00034F440E05EEF5093F0034093EF034EEF203034076CF22091EF033091F00364CF49
:2017C0002091EF033091F0032E5130403093F0032093EF034EEF203034070CF017C180E06C
:2017E0009EEF9093F0038093EF038091F1039091F20320E830E04ECF2091EF033091F0039A
:201800002E5130403093F0032093EF038091F1039091F2034E969093F2038093F1034EEF23
:201820002030340734F420E03EEF3093F0032093EF0342E0813094070CF426CF80E092E038
:201840009093F2038093F1031FCF2091EF033091F0038091F1039091F203821793070CF4D6
:20186000DAC09C01225E3F4F3093F0032093EF034E969093F2038093F10342E02130340717
:2018800034F020E032E03093F0032093EF0322E0813092070CF48FCF80E092E09093F20323
:2018A0008093F1032091EF033091F003EDCE2091EF033091F003225E3F4F3093F003209341
:2018C000EF0342E0213034070CF4A0C080E092E09093F0038093EF038091F1039091F20300
:2018E00020E830E0D7CE8091150590E0019665E070E00E94922880931505882309F08DC0EA
:20190000449A459A10920E028FEF80930D0280930C020E94351D80910D020E94491D80916A
:201920000E020E945D1D2091EF033091F0038091F1039091F203A8CE8091160590E0019660
:201940008370907080931605823009F4CFCE833009F453C0813009F4C4CE10923B05109293
:201960003C058ACE2091EF033091F003225E3F4F3093F0032093EF038091F1039091F203F3
:201980004E979093F2038093F10342E02130340734F020E032E03093F0032093EF034EEFC7
:2019A000803094070CF070CE80E09EEF9093F2038093F10369CE1092F0031092EF03109294
:2019C000F2031092F10380E090E020E030E05ECE8091F1039091F2034E969093F203809346
:2019E000F10322E0813092070CF4E5CE80E092E09093F2038093F103DECE81E080933B05A3
:201A000080933C052091EF033091F0038091F1039091F20339CEC90125CF813061F0823087
:201A200091F08330D9F08FEF80930E0280930D0280930C026ECF8FEF80930E0210920D0236
:201A400080930C0266CF449845988FEF80930E0280930D0210920C0280E05BCF10920E02C8
:201A600010920D0210920C0280E053CF08950F931F93CF93DF93FC0180819181009709F41A
:201A8000B7C020912A0530912B0541E02E3034070CF488C0181619060CF013C188E691E000
:201AA000821B930B959587959595879529E130E0281B390B309304022093030240913F0528
:201AC0005091400550935A05409359052081318137FDD2C08091E7039091E803B901681B10
:201AE000790BCB017093400560933F052091F7033091F803280F391F3093F8032093F703B6
:201B000076E0213437070CF484C020E436E03093F8032093F70360EC72E19C01220F331F54
:201B2000DC01AA0FBB1FAA0FBB1FAA0FBB1F2A0F3B1F00811181C0910302D09104020C9F01
:201B4000D0010D9FB00D1C9FB00D11242A0F3B1F481B590B440F551F240F351F260F371F6B
:201B60003093F6032093F50337FD69C0121613060CF06FC08081918197FD89C07DE5213C86
:201B800037070CF466C080EC9DE59093F6038093F50380E092E091838083DF91CF911F9163
:201BA0000F910895243B310594F42A3531057CF4181619060CF093C035952795359527951E
:201BC000275E3F4F309304022093030277CF1816190694F584EB90E0821B930B95958795F5
:201BE000959587954996909304028093030266CF1092F8031092F7031092400510923F0544
:201C000010925A0510925905DF91CF911F910F91089569EF203C36074CF420EC39EF3093DE
:201C2000F8032093F70360E47DEE77CFB901660F771F620F731F71CF84EB90E031CF80811F
:201C4000918197FD06C01092F6031092F50320E030E082EA2034380704F580E492EA9093D8
:201C6000F6038093F50380E09EEF91838083DF91CF911F910F9108958091E7039091E80398
:201C8000820F931F9093400580933F052FCF1092F6031092F50320E030E0359527953595AF
:201CA000279535952795359527953183208342E0213034070CF06DCF6EEF203036079CF2A7
:201CC0006CCF88E691E0821B930B959587959595879549969093040280930302EFCE35957C
:201CE00027953595279589E190E0821B930B9093040280930302E2CE0F931F93CF93DF9374
:201D0000FC0180819181009709F4B7C020912A0530912B0541E02E3034070CF488C01816A7
:201D200019060CF013C188E691E0821B930B959587959595879529E130E0281B390B3093AA
:201D4000060220930502409168055091690550934205409341052081318137FDD2C08091C7
:201D6000E9039091EA03B901681B790BCB0170936905609368052091F9033091FA03280F69
:201D8000391F3093FA032093F90376E0213437070CF484C020E436E03093FA032093F903C6
:201DA00060EC72E19C01220F331FDC01AA0FBB1FAA0FBB1FAA0FBB1F2A0F3B1F0081118128
:201DC000C0910502D09106020C9FD0010D9FB00D1C9FB00D11242A0F3B1F481B590B440F03
:201DE000551F240F351F260F371F3093F4032093F30337FD69C0121613060CF06FC0808130
:201E0000918197FD89C07DE5213C37070CF466C080EC9DE59093F4038093F30380E092E0CD
:201E200091838083DF91CF911F910F910895243B310594F42A3531057CF4181619060CF063
:201E400093C03595279535952795275E3F4F309306022093050277CF1816190694F584EB00
:201E600090E0821B930B95958795959587954996909306028093050266CF1092FA03109291
:201E8000F90310926905109268051092420510924105DF91CF911F910F91089569EF203CE5
:201EA00036074CF420EC39EF3093FA032093F90360E47DEE77CFB901660F771F620F731F45
:201EC00071CF84EB90E031CF8081918197FD06C01092F4031092F30320E030E082EA203475
:201EE000380704F580E492EA9093F4038093F30380E09EEF91838083DF91CF911F910F9183
:201F000008958091E9039091EA03820F931F90936905809368052FCF1092F4031092F30396
:201F200020E030E0359527953595279535952795359527953183208342E0213034070CF078
:201F40006DCF6EEF203036079CF26CCF88E691E0821B930B959587959595879549969093EA
:201F6000060280930502EFCE359527953595279589E190E0821B930B90930602809305021C
:201F8000E2CEFC0180819181009709F47BC0A0916805B0916905B0934205A09341052081C1
:201FA000318137FD89C08091E9039091EA03A901481B590BCA015093690540936805209169
:201FC000F9033091FA03280F391F3093FA032093F90356E0213435070CF461C020E436E047
:201FE0003093FA032093F90360E87CE09C01220F331F280F391F220F331F220F331F220FE8
:20200000331F280F391F40815181440F551F440F551F440F551F240F351FAD01481B590BFB
:20202000CA01880F991F840F951F280F391F260F371F3093F4032093F30337FD4CC012165A
:2020400013060CF052C08081918197FD67C05DE5213C35070CF449C080EC9DE59093F4039F
:202060008093F3032CED35E0225E3F4F3183208342E0213034070CF448C080E092E0918328
:20208000808308951092FA031092F90310926905109268051092420510924105089549EF9E
:2020A000203C3407A4F420EC39EF3093FA032093F90360E873EF9ACF8091E9039091EA0330
:2020C000820F931F909369058093680578CFB901660F771F8BCF8081918197FD06C0109237
:2020E000F4031092F30320E030E082EA20343807DCF480E492EA9093F4038093F30324E269
:202100003AEF2E513040318320835EEF2030350724F480E09EEF9183808308951092F40325
:202120001092F30320E030E035952795359527953595279535952795318320831216130647
:202140000CF492CF21153105E1F60895FC0180819181009709F47BC0A0913F05B091400564
:20216000B0935A05A09359052081318137FD89C08091E7039091E803A901481B590BCA0119
:202180005093400540933F052091F7033091F803280F391F3093F8032093F70356E0213414
:2021A00035070CF461C020E436E03093F8032093F70360E87CE09C01220F331F280F391FEA
:2021C000220F331F220F331F220F331F280F391F40815181440F551F440F551F440F551FFF
:2021E000240F351FAD01481B590BCA01880F991F840F951F280F391F260F371F3093F603AC
:202200002093F50337FD4CC0121613060CF052C08081918197FD67C05DE5213C35070CF4DB
:2022200049C080EC9DE59093F6038093F5032CED35E0225E3F4F3183208342E0213034073F
:202240000CF448C080E092E09183808308951092F8031092F7031092400510923F05109248
:202260005A0510925905089549EF203C3407A4F420EC39EF3093F8032093F70360E873EFB2
:202280009ACF8091E7039091E803820F931F9093400580933F0578CFB901660F771F8BCF66
:2022A0008081918197FD06C01092F6031092F50320E030E082EA20343807DCF480E492EABD
:2022C0009093F6038093F50324E23AEF2E513040318320835EEF2030350724F480E09EEF84
:2022E0009183808308951092F6031092F50320E030E0359527953595279535952795359589
:20230000279531832083121613060CF492CF21153105E1F6089585B7806185BF8FEF81B90F
:2023200012B897EF94B990EE95B990EF97B990EB98B99CEF9AB993E09BB98DB91EB810BA0E
:2023400083BB80913A058823E1F08130D1F0823051F19FEF90930101109202019FE0909313
:2023600004018823A9F49091050110920501109207019FEF90930A01882329F410920B0165
:20238000089514BAE6CF8130C9F3823041F00895813011F0823059F790930501E8CF87EF26
:2023A00080930B01089598E094BBD3CF1092B8001092BC000895589A599A1092B90081E002
:2023C0008093B800089594EA9093BC009091BC0097FFFCCF9091B900987F983021F090316F
:2023E00011F081E008958093BB0084E88093BC008091BC0087FFFCCF9091B900987F9831FD
:2024000021F081E0903419F0089580E0089580E0089524EA34E844E92093BC009091BC0043
:2024200097FFFCCF9091B900987F983011F0903199F78093BB003093BC009091BC0097FF70
:20244000FCCF9091B900987F903219F0983509F008954093BC009091BC0094FDFCCFDCCF1F
:2024600094EA9093BC009091BC0097FFFCCF9091B900987F983021F0903111F081E0089537
:202480008093BB0084E88093BC008091BC0087FFFCCF9091B900987F983121F081E0903425
:2024A00019F0089580E0089580E0089584E98093BC008091BC0084FDFCCF08958093BB00BC
:2024C00084E88093BC008091BC0087FFFCCF9091B900987F81E0983209F0089580E00895F4
:2024E00084EC8093BC008091BC0087FFFCCF8091BB00089584E88093BC008091BC0087FF88
:20250000FCCF8091BB0008951092C50080E18093C400E0ECF0E0808182608083E1ECF0E0C9
:20252000808188698083E2ECF0E080818660808308951092CD0080E18093CC00E8ECF0E02E
:20254000808182608083E9ECF0E0808188618083EAECF0E080818660808308951092C00074
:202560001092C1001092C20008959091C00095FFFCCF8093C600662321F08091C00086FFEE
:20258000FCCF08959091C80095FFFCCF8093CE00662321F08091C80086FFFCCF0895809139
:2025A000C0008095881F8827881F089587E990E02091C00027FD07C00197D1F781E080939C
:2025C0000A0480E008958091C60008951F920F920FB60F9211242F933F934F938F939F93C5
:2025E0009091C600809111028823C9F480910F05813061F08230C1F09F918F914F913F91DE
:202600002F910F900FBE0F901F9018959A3A69F1953591F78093110210920F05EDCF1092D9
:20262000110290930F05E8CF409111054423A9F0413011F7392F20E0809103049091040490
:20264000822B932B9093040480930304409310051092110540931102CFCF909303041092DA
:20266000040481E080931105C7CF80931205C4CF86B166B126B146B130E028703070359547
:2026800027953595279535952795220F331F70E0647070707595679575956795260F371F54
:2026A000220F331F50E04270507055954795240F351F220F8170820F0895F89414BC15BC2B
:2026C00010926E0010922001109221018EEF9FE00E94E32A90930404809303049C0121585D
:2026E0003C4023303105F8F410923A050E948B110E9469140E943E170E94F81C0E94110447
:202700000E94FA0480910604882329F4809105048160809305040E9484120E94401E0E9445
:20272000AB09789408952CE08038920721F481E080933A05DBCF2CE084389207B8F282E000
:2027400080933A05D3CF1F920F920FB60F9211240F900FBE0F901F901895CF93DF939EE1DE
:20276000899FE0011124809168008D7F8093680080916C008F7780936C00D99A10927A008A
:2027800080917A00806180937A0010929000109291001092710088B3876088BB1092A00021
:2027A0001092A1001092720089B3876089BB10928000109281000E94AE120E941D040E944F
:2027C000D6110E948B1183B78F6083BF81E0809370008091B0008D7F8093B0008091B10033
:2027E00087608093B100209719F088952197E9F713BE8091B100887F8093B1001092700049
:202800008091B00082608093B0008FEF80930C0280930D0280930E021092EC031092EB034D
:202820001092EE031092ED03F89414BC15BC10926E0010922001109221018EEF9FE00E9411
:20284000E32A90930404809303049C0121583C402330310508F510923A050E948B110E944D
:2028600069140E943E170E94F81C0E9411040E94FA0480910604882329F4809105048160F9
:20288000809305040E9484120E94401E0E94AB097894DF91CF9108952CE08038920721F4A3
:2028A00081E080933A05D9CF2CE084389207A8F282E080933A05D1CF60913305709134050B
:2028C0008091350590913605089581E08093C5030895CF93DF93EAE7F0E01082ABE7B0E0B2
:2028E0001C92CCE7D0E018828081866080838881806488838081806280838C91887F8C9322
:20290000808188608083808180688083808180648083DF91CF9108951F920F920FB60F92D2
:202920000BB60F9211242F933F934F935F936F938F939F93AF93BF93EF93FF938091330551
:2029400090913405A0913505B09136050196A11DB11D8093330590933405A0933505B093BC
:2029600036052091780030E040917900942F80E0282B392B8091BF03823009F4ACC183301D
:2029800008F445C0833009F4C9C1843009F468C18091C003823009F44FC1833008F0CDC057
:2029A000882309F024C180912A038695809329038091C103882309F0E1C181E08093BF03A5
:2029C00081E08093C00390912903983008F0EDC090917B00977F90937B0090912903905C7D
:2029E00090937C00823009F4EDC0FF91EF91BF91AF919F918F916F915F914F913F912F918C
:202A00000F900BBE0F900FBE0F901F901895882309F0FEC060912A036E3009F4D0C1462FC6
:202A200050E0FA01EE0FFF1FE15DFC4F3183208340FF77C0FA01EE0FFF1FE35DFC4F808158
:202A40009181FA01EE0FFF1FE15DFC4F40815181262F269530E0841B950B220F331FF90156
:202A6000E958FC4F40815181841B950BF901E15AFC4F9183808397FDBDC144E081309407DF
:202A800024F080E094E091838083603148F48C3391050CF0B4C129533C4FF901918380838C
:202AA00080913C05882309F475C180916F0390917003F1E0843A9F07CCF080917103909138
:202AC000720321E0843A92078CF0809173039091740341E0843A94074CF08091750390912E
:202AE0007603E1E0843A9E070CF054C181E080933D051092EE031092ED031092A900109260
:202B0000A8001092AB001092AA001092EC031092EB03109299001092980010929B001092FF
:202B20009A006F5F60932A03683108F431CF10922A0381E08093C6032BCF833009F4B7C04B
:202B4000843009F040CF90912C039093290390912D039093C1039091C203992309F008C17E
:202B600083E08093BF031092C00360912A036E3009F41FC1862F90E060FFF1C0603108F45D
:202B80000CC120913A05222309F0D5C040979595879521E030E002C0220F331F8A95E2F73A
:202BA000209305018091C0030ECF90917B00986090937B0090912903985C90937C008230E7
:202BC00009F013CF20913A05222351F0213019F0223009F00ACF8FEF8093050112B805CFF1
:202BE00080910501807F8093050112B8FECE813009F0E9CE80912B038093290380912E03EF
:202C00008093C2031092BF0382E08093C003DBCE813009F0BDCE8091D9039091DA03820FE6
:202C2000931F969587959093DA038093D9038091C003823009F0B1CE80912C03809329032F
:202C400080912D038093C1038091C203882309F09BC083E08093BF0383E08093C003B3CE95
:202C600080910A02882309F493CE9091000193FD8FCE9091000194FD8BCE482F4F5F40931B
:202C80000A02453008F484CE8091E3039091E403820F931F9093E4038093E303483009F0AF
:202CA00077CE10920A0281E08093070271CE80912B038093290380912E038093C2038091BC
:202CC000C103882309F04EC081E08093BF0384E08093C00378CE80910902882309F458CEDE
:202CE000639956CE649954CE482F4F5F40930902453008F44DCE8091E5039091E603820F72
:202D0000931F9093E6038093E503483009F040CE1092090281E0809308023ACE8091D7035D
:202D20009091D803820F931F969587959093D8038093D7032DCE213011F0223081F440913D
:202D4000050140979595879521E030E002C0220F331F8A95E2F7209524232093050180913C
:202D6000C00331CE8130D1F185E08093BF03AFCF913009F085E08093BF03F5CE8130B1F15C
:202D800085E08093BF031CCE813061F185E08093BF0362CF10923D05C4CE669581E090E05F
:202DA00002C0880F991F6A95E2F782B98091C0030ACE8091C5038130A1F180E004CE8091E4
:202DC000C503823009F02BCE3093C4032093C3031092C50346984EE050E02ACE82E0809371
:202DE000BF0375CF84E08093BF0336CF82E08093BF03E6CD1182108280E090E046CEAC01EF
:202E0000445C5F4F55954795483751057CF429533C4FCC9795958795CC96F9019183808336
:202E20003FCE82E08093C503469AA4CEAC01445D5E4F5595479555954795443B510574F432
:202E400029533C4F845B9040959587959595879588589F4FF9019183808322CE29533C4F5A
:202E6000845A91409595879595958795959587958C549F4FF9019183808312CE0F931F93BE
:202E8000CF93DF93E0E9F0E0108241E950E0DA011C9221E730E0E9011882A0EAB0E01C92EC
:202EA00081EA90E0EC01188202E710E0E8011882608163686083608163606083EA0168816A
:202EC0006B6068834091EB035091EC03509399004093980010929B0010929A00E90148819A
:202EE0004160488320812F7520832EB1277E2EB92C9123682C93FC0120812B60208380912F
:202F0000ED039091EE039093A9008093A8001092AB001092AA00E8018881816088838C9194
:202F20008F758C93E2E0F1E08081877E8083DF91CF911F910F91089580910702882391F0CF
:202F40008091E3039091E40396958795969587959093E8038093E703109207021092E403A5
:202F60001092E30380910802882391F08091E5039091E60396958795969587959093EA03E1
:202F80008093E903109208021092E6031092E5038091EF039091F0039093FC038093FB0327
:202FA0002091F1033091F2033093FE032093FD0340913B05442371F53093E2032093E10322
:202FC0009093E0038093DF033093EE032093ED039093EC038093EB031816190654F59093D3
:202FE0009900809398008091ED039091EE03181619062CF49093A9008093A8000895009752
:2030000059F51092A9001092A8001092AB001092AA0008958DEF93E06BEF73E00E94E41A5B
:203020002091FD033091FE038091FB039091FC03C3CF009749F41092990010929800109271
:203040009B0010929A00CFCF909581959F4F90939B0080939A00C7CF909581959F4F909385
:20306000AB008093AA0008952091F1033091F2033093FE032093FD038091EF039091F00362
:203080009093FC038093FB0340913B05442309F070C03093E2032093E1039093E003809304
:2030A000DF0380910702882359F18091E3039091E40396958795969587959093E803809371
:2030C000E703109207021092E4031092E30380911702813009F461C08DEF93E00E94370D7C
:2030E0008091FD039091FE039093EE038093ED03181619060CF056C09093A9008093A800A0
:20310000809108028823A1F18091E5039091E60396958795969587959093EA038093E903B7
:20312000109208021092E6031092E50380911702813071F18BEF93E00E947C0E8091FB0369
:203140009091FC039093EC038093EB03181619062CF490939900809398000895009769F5D6
:20316000109299001092980010929B0010929A0008958DEF93E06BEF73E00E94E41A2091D7
:20318000FD033091FE038091FB039091FC0381CF8BEF93E00E94C10FD1CF8DEF93E00E945E
:2031A000A6109ECF009789F41092A9001092A8001092AB001092AA00A3CF909581959F4F0F
:2031C00090939B0080939A000895909581959F4F9093AB008093AA0093CF282F332727FDFC
:2031E000309537FD30C0309300042093FF0387FD1EC0220F331F220F331F3093F203209397
:20320000F10382E0213038073CF080E092E09093F2038093F10308958EEF2030380734F4DA
:2032200080E09EEF9093F2038093F1030895220F331F220F331F309521953F4F3093F2031E
:203240002093F103DECF309521953F4FCCCF282F332727FD309537FD30C03093020420933C
:20326000010487FD1EC0220F331F220F331F3093F0032093EF0382E0213038073CF080E008
:2032800092E09093F0038093EF0308958EEF2030380734F480E09EEF9093F0038093EF03C8
:2032A0000895220F331F220F331F309521953F4F3093F0032093EF03DECF309521953F4F51
:2032C000CCCF1F920F920FB60F9211248F939F9380913D05882361F01092EE031092ED039E
:2032E0001092A9001092A8001092AB001092AA001092D8031092D7038091ED039091EE0394
:20330000009741F58091E1039091E20397FD69C081E080932E038EE080932B0381E0809360
:203320000A028091A0008F758093A00080910201877E8093020180917200897F80937200DA
:2033400089B3866089BB9F918F910F900FBE0F901F901895181619062CF510922E038FE0A0
:2033600080932B038091A0008F7D8093A000809172008B7F80937200809102018F7E809356
:2033800002018091A00080688093A000809172008260809372009F918F910F900FBE0F9099
:2033A0001F90189510922E038EE080932B038091A0008F778093A000809172008D7F809323
:2033C000720080910201877F809302018091A00080628093A0008091720084608093720019
:2033E000B2CF81E080932E038FE080932B0396CF1F920F920FB60F9211248F939F9381E0F0
:2034000080932E039EE090932B0380930A029F918F910F900FBE0F901F9018951F920F9271
:203420000FB60F9211248F939F9381E080932E039FE090932B0380930A029F918F910F901A
:203440000FBE0F901F9018951F920F920FB60F9211248F939F9380913D05882361F0109272
:20346000EC031092EB03109299001092980010929B0010929A001092DA031092D9038091D1
:20348000EB039091EC03009731F58091DF039091E00397FD5FC081E080932D038CE08093A4
:2034A0002C0381E080930902809190008F75809390008EB1877E8EB980917100897F8093EE
:2034C000710088B3866088BB9F918F910F900FBE0F901F901895181619060CF510922D0340
:2034E0008DE080932C03809190008F7D80939000809171008B7F8093710074988091900010
:20350000806880939000809171008260809371009F918F910F900FBE0F901F9018951092DF
:203520002D038CE080932C03809190008F7780939000809171008D7F809371007398809135
:20354000900080628093900080917100846080937100BACF81E080932D038DE080932C0390
:20356000A0CF1F920F920FB60F9211248F939F9381E080932D039CE090932C03809309020B
:203580009F918F910F900FBE0F901F9018951F920F920FB60F9211248F939F9381E08093BF
:2035A0002D039DE090932C03809309029F918F910F900FBE0F901F90189580919400909171
:2035C00095000E942F2908952F923F924F925F926F927F928F929F92AF92BF92CF92DF9293
:2035E000EF92FF920F931F93DF93CF93CDB7DEB728970FB6F894DEBF0FBECDBF2C017A8348
:203600006983FC010190F081E02DFC83EB83FB010190F081E02DFE83ED836091C70370910D
:20362000C8036530710534F41092C8031092C70360E070E04091C9035091CA03453051050D
:2036400034F41092CA031092C90340E050E08091CB039091CC038530910524F41092CC0372
:203660001092CB030091CD031091CE030530110534F41092CE031092CD0300E010E06090EF
:20368000CF037090D003F5E06F16710434F41092D0031092CF03662477242091D10330913A
:2036A000D2032530310534F41092D2031092D10320E030E08091D3039091D403853091055B
:2036C00024F41092D4031092D3038091D5039091D6038530910534F41092D6031092D50396
:2036E00080E090E0EE24FF24E61AF70A5A01B594A794159507956901D594C7944C019594FB
:2037000087940E942A2993012E5130402E0D3F1D200F311F2C0D3D1D2A193B092819390963
:203720004CE3242E312CB1010E949228280F391F38872F83E090C903F090CA03F594E79410
:203740000091CB031091CC031595079515950795C090CD03D090CE03D594C7948090D10315
:203760009090D203959487946090D3037090D4037594679475946794A090D503B090D6034A
:20378000B594A7940E942A299701200F311F2E5130402C0D3D1D2A193B09281939092619CE
:2037A0003709B1010E949228280F391F4B815C8157FD97C05A01CC24B7FCC094DC2C8F816E
:2037C00098853C01882477FC8094982C79010027F7FC0095102FC401B3016E197F09800B1D
:2037E000910BA60195010E945F28F7E09595879577956795FA95D1F76A0D7B1D8C1D9D1DD9
:20380000F201718360832D813E8137FD99C05901CC24B7FCC094DC2CC801B701660D771D03
:20382000881D991DA60195010E945F2837E095958795779567953A95D1F76A0D7B1D8C1D13
:203840009D1D9B01E981FA8171836083F2E021303F0744F080E092E0E981FA8191838083EB
:2038600020E032E0F20180819181F2E081309F074CF080E092E0F20191838083E981FA810A
:2038800020813181FEEF20303F074CF480E09EEFE981FA8191838083F20180819181FEEF36
:2038A00080309F072CF480E09EEFF2019183808328960FB6F894DEBF0FBECDBFCF91DF91C6
:2038C0001F910F91FF90EF90DF90CF90BF90AF909F908F907F906F905F904F903F902F9076
:2038E00008954D815E815A01CC24B7FCC094DC2C8F8198853C01882477FC8094982C790149
:203900000027F7FC0095102FC801B701660D771D881D991DA60195010E945F28E7E095957F
:20392000879577956795EA95D1F7261B370B480B590BF201318320832D813E8137FF67CFBF
:203940002B813C815901CC24B7FCC094DC2CC401B3016E197F09800B910BA60195010E9417
:203960005F2827E095958795779567952A95D1F7A61AB70AC80AD90A9501E981FA81B18200
:20398000A08264CF80916F039091700321E0843A9207D4F0809171039091720321E0843AC5
:2039A000920794F0809173039091740321E0843A920774F081E0209175033091760391E0DA
:2039C000243A39071CF4089581E0089580E0089581E0089581E080933B05089510923B0570
:2039E000089581E080933C05089510923C050895A0E8B0E01C92E1E8F0E010828C91896A57
:203A00008C9380818960808380910C0290E0909389008093880080910D0290E090938B0086
:203A200080938A0080910E0290E090938D0080938C00089581E090910704891B809307041D
:203A4000882339F480918000877F809380002F980895809180008860809380008FEF90E006
:203A600090938D0080938C000895882359F09091800090689093800090E0909389008093FB
:203A800088000895809180008F77809380002D980895882359F0909180009062909380004B
:203AA00090E090938B0080938A000895809180008F7D809380002E980895882359F0909106
:203AC000800098609093800090E090938D0080938C00089580918000877F809380002F987E
:203AE0000895833009F45AC0843080F0853009F441C08530D0F4662309F468C080910B0144
:203B00008F7E80930B0180910B0108958130E1F1823080F0662309F446C080910B018B7F67
:203B200080930B0180910B0108958630C9F0873061F00895662309F451C080910B018E7FD7
:203B400080930B0180910B010895662309F05EC080910B01806880930B0180910B0108950E
:203B6000662349F180910B018F7B80930B0180910B0108956623D1F180910B018F7D8093FB
:203B80000B0180910B0108956623C1F180910B018D7F80930B0180910B010895662399F010
:203BA000A39884B3089580910B01846080930B0180910B01089580910B01806480930B01FC
:203BC00080910B010895A39A84B3089580910B01806180930B0180910B01089580910B0126
:203BE000816080930B0180910B01089580910B01806280930B0180910B01089580910B0116
:203C0000826080930B0180910B01089580910B018F7780930B0180910B010895EBE0F1E051
:203C2000808181608083808182608083808184608083A39A808180618083808180628083C9
:203C40008081806480838081806880830895EBE0F1E080818E7F808380818D7F8083808135
:203C60008B7F8083A39880818F7E808380818F7D808380818F7B808380818F778083089526
:203C80000E94DB11809114020E94E311882349F486E10E945E1285E40E945E120E945612F3
:203CA00008950E94561286EA90E0909315028093140286EA0E94E311882341F58DE20E9422
:203CC0005E1288E00E945E120E945612809114020E94E3118823D1F481E30E945E1280E0ED
:203CE0000E945E120E945612809114020E94E311882361F48CE20E945E1289E00E945E12F0
:203D00000E94561281E08093170508950E94561282E0809317050895809114020E94E31177
:203D2000882351F486E10E945E1285E40E945E120E94561280E008950E94561281E0089590
:203D4000809114020E94E311882331F58DE20E945E1288E00E945E120E94561280911402A9
:203D60000E94E3118823C1F481E30E945E1280E00E945E120E945612809114020E94E3119E
:203D8000882351F48CE20E945E1289E00E945E120E94561280E008950E94561281E0089529
:203DA000FF920F931F93DF93CF930F92CDB7DEB780911705882391F0813009F488C010929F
:203DC00019051092180510921B0510921A050F90CF91DF911F910F91FF9008958091140271
:203DE0000E94E31180E00E945E12809114028F5F0E9430120E947012082F0E947012F82E1D
:203E00000E947012182F0E947A1289830E94561290916A058981992339F14F2D552747FD37
:203E20005095542F4427602F772767FD7095462B572B5093190540931805282F332727FD60
:203E40003095322F2227812F992787FD9095282B392B30931B0520931A050F90CF91DF91FF
:203E60001F910F91FF9008954F2D552747FD5095542F4427602F772767FD7095462B572B2E
:203E800060911E0570911F05461B570B5093190540931805282F332727FD3095322F2227F1
:203EA000812F992787FD9095282B392B8091200590912105281B390B30931B0520931A0579
:203EC0000F90CF91DF911F910F91FF900895809114020E94E31182E386CFDF93CF9300D0DC
:203EE00000D0CDB7DEB7809117058823C1F0813009F4ADC0109219051092180510921B05F4
:203F000010921A0510921D0510921C0526960FB6F894DEBF0FBECDBFCF91DF9108958091D8
:203F200014020E94E31180E00E945E12809114028F5F0E9430120E94701289830E94701216
:203F40008A830E9470128B830E9470128C830E9470128D830E947A128E830E945612809161
:203F60006A05882389F18A81992787FD9095982F88272981332727FD3095822B932B909348
:203F80001905809318058C81992787FD9095982F88272B81332727FD3095822B932B90936A
:203FA0001B0580931A058E81992787FD9095982F88272D81332727FD3095822B932B909342
:203FC0001D0580931C05A2CF8A81992787FD9095982F88272981332727FD3095822B932BD8
:203FE00020911E0530911F05821B930B90931905809318058C81992787FD9095982F882770
:204000002B81332727FD3095822B932B2091200530912105821B930B90931B0580931A05D9
:204020008E81992787FD9095982F88272D81332727FD3095822B932B209122053091230575
:20404000821B930B90931D0580931C055FCF809114020E94E31182E367CFCF93DF931092B0
:204060000C0210920D0210920E0280E00E94351D80910D020E94491D80910E020E945D1D16
:20408000109239051092380581E080936A05C1E0D0E00E946D1F20913805309139052131C0
:2040A00031050CF435C180918F0390919003A0919103B091920354E0B695A79597958795DF
:2040C0005A95D1F790937803809377038091930390919403A0919503B091960344E0B6958D
:2040E000A795979587954A95D1F790937A03809379038091970390919803A0919903B091F1
:204100009A0334E0B695A795979587953A95D1F790937C0380937B0380919B0390919C03E6
:20412000A0919D03B0919E0324E0B695A795979587952A95D1F790937E0380937D0380912A
:204140009F039091A003A091A103B091A203F4E0B695A79597958795FA95D1F7909380039E
:2041600080937F038091A3039091A403A091A503B091A603E4E0B695A79597958795EA9556
:20418000D1F790938203809381038091A7039091A803A091A903B091AA0374E0B695A795EB
:2041A000979587957A95D1F790938403809383038091AB039091AC03A091AD03B091AE033B
:2041C00064E0B695A795979587956A95D1F790938603809385038091B3039091B403A091EE
:2041E000B503B091B60354E0B695A795979587955A95D1F79C018091B7039091B803A091DE
:20420000B903B091BA0344E0B695A795979587954A95D1F7BC018091BB039091BC03A091AD
:20422000BD03B091BE03F4E0B695A79597958795FA95D1F7AC018091AF039091B003A0914D
:20424000B103B091B203E4E0B695A79597958795EA95D1F7805092409093880380938703ED
:204260002050324030938A03209389036050724070938C0360938B034050524050938E03C2
:2042800040938D0380912405909125059595879595958795959587959595879590931F05D7
:2042A00080931E0580912605909127059595879595958795959587959595879590932105DE
:2042C0008093200580912805909129059595879595958795959587959595879590932305B6
:2042E0008093220510926A058FEF80930C0280930D0280930E020E94351D80910D020E94D9
:20430000491D80910E020E945D1DDF91CF9108958091C603882309F486C11092C603211523
:20432000310509F486C180915F0390916003AA2797FDA095BA2F40918F03509190036091C1
:20434000910370919203840F951FA61FB71F80938F0390939003A0939103B0939203809146
:20436000610390916203AA2797FDA095BA2F40919303509194036091950370919603840F3B
:20438000951FA61FB71F8093930390939403A0939503B09396038091630390916403AA27F4
:2043A00097FDA095BA2F40919703509198036091990370919A03840F951FA61FB71F809344
:2043C000970390939803A0939903B0939A038091650390916603AA2797FDA095BA2F40917F
:2043E0009B0350919C0360919D0370919E03840F951FA61FB71F80939B0390939C03A093E4
:204400009D03B0939E038091670390916803AA2797FDA095BA2F40919F035091A0036091A6
:20442000A1037091A203840F951FA61FB71F80939F039093A003A093A103B093A203809105
:20444000690390916A03AA2797FDA095BA2F4091A3035091A4036091A5037091A603840F0A
:20446000951FA61FB71F8093A3039093A403A093A503B093A60380916B0390916C03AA27C3
:2044800097FDA095BA2F4091A7035091A8036091A9037091AA03840F951FA61FB71F809323
:2044A000A7039093A803A093A903B093AA0380916D0390916E03AA2797FDA095BA2F40914E
:2044C000AB035091AC036091AD037091AE03840F951FA61FB71F8093AB039093AC03A093A3
:2044E000AD03B093AE0380916F0390917003AA2797FDA095BA2F4091AF035091B003609176
:20450000B1037091B203840F951FA61FB71F8093AF039093B003A093B103B093B2038091C4
:20452000710390917203AA2797FDA095BA2F4091B3035091B4036091B5037091B603840FD9
:20454000951FA61FB71F8093B3039093B403A093B503B093B6038091730390917403AA2792
:2045600097FDA095BA2F4091B7035091B8036091B9037091BA03840F951FA61FB71F809302
:20458000B7039093B803A093B903B093BA038091750390917603AA2797FDA095BA2F40911D
:2045A000BB035091BC036091BD037091BE03840F951FA61FB71F8093BB039093BC03A09362
:2045C000BD03B093BE0380912405909125054091180550911905840F951F909325058093FE
:2045E0002405809126059091270540911A0550911B05840F951F9093270580932605809133
:2046000028059091290540911C0550911D05840F951F90932905809328052F5F3F4F309372
:2046200039052093380580916A05882309F031CD5BCE10928F0310929003109291031092C0
:20464000920310927803109277031092930310929403109295031092960310927A031092E5
:20466000790310929703109298031092990310929A0310927C0310927B0310929B031092A5
:204680009C0310929D0310929E0310927E0310927D0310929F031092A0031092A103109240
:2046A000A2031092800310927F031092A3031092A4031092A5031092A6031092820310921D
:2046C00081031092A7031092A8031092A9031092AA0310928403109283031092AB031092DD
:2046E000AC031092AD031092AE0310928603109285031092AF031092B0031092B103109270
:20470000B20310928803109287031092B3031092B4031092B5031092B60310928A03109254
:2047200089031092B7031092B8031092B9031092BA0310928C0310928B031092BB03109214
:20474000BC031092BD031092BE0310928E0310928D03109225051092240510922705109269
:2047600026051092290510922805D0933905C093380580916A0559CF80911705882379F055
:20478000813011F1109219051092180510921B0510921A0510921D0510921C05089580912F
:2047A00014020E94E31180E00E945E12809114028F5F0E9430120E94701280932D050E94D7
:2047C000701280932E050895809114020E94E31182E30E945E12809114028F5F0E94301247
:2047E0000E94701280932D050E94701280932E050E94701280932F05089580911705882306
:2048000009F04EC00E94701280932F050E947012809330050E947012809331050E947A121F
:20482000809332050E94561280916A05882309F447C080912E05992787FD9095982F8827D2
:2048400020912D05332727FD3095822B932B909319058093180580913005992787FD9095A7
:20486000982F882720912F05332727FD3095822B932B90931B0580931A05809132059927B2
:2048800087FD9095982F882720913105332727FD3095822B932B90931D0580931C0508954E
:2048A000813009F4B3CF109219051092180510921B0510921A0510921D0510921C050895A2
:2048C00080912E05992787FD9095982F882720912D05332727FD3095822B932B20911E0550
:2048E00030911F05821B930B909319058093180580913005992787FD9095982F8827209151
:204900002F05332727FD3095822B932B2091200530912105821B930B90931B0580931A0548
:2049200080913205992787FD9095982F882720913105332727FD3095822B932B20912205E3
:2049400030912305821B930B90931D0580931C050895EF92FF920F931F9380911C05909164
:204960001D0597FD5BC08031910508F042C081E08093160290911502981709F442C0109211
:204980002C05809315026091180570911905882777FD8095982F0E9411267B018C016091BD
:2049A0001A0570911B05882777FD8095982F0E9411269B01AC01C801B7010E94492921EEF2
:2049C0003EE245E652E40E9412250E946F269B0170932B0560932A0577FF06C028593E4F0B
:2049E00030932B0520932A051F910F91FF90EF9008951092160280E090911502981709F0ED
:204A0000BECF90912C059F5F90932C05953008F4B8CF10922C0580931702B3CF9095819561
:204A20009F4FA1CFA0E2B0E0E8E1F5E20C94A72869837A838B839C832D833E834F835887BF
:204A400099E0E92EF12CEC0EFD1EB701CE0101960E94EF278E010F5E1F4FB801CE01059631
:204A60000E94EF279985923088F089898230C0F0943019F4823029F009C0843029F49230BA
:204A800079F468E172E0C6C0923041F420E09A858A89981321E02A87B701BCC0823041F4E7
:204AA00020E09A858A89981321E02A8BB801B2C0CD84DE84EF84F8880D891E892F89388DD8
:204AC00088249924540140E050E060E070E0442455243201E0E0F0E0C60181709070892B28
:204AE000D9F0800E911EA21EB31EDB01CA01840D951DA61DB71D40E050E060E070E0801628
:204B00009106A206B30620F441E050E060E070E0480F591F6A1F7B1F440C551C661C771CE0
:204B200037FF08C081E090E0A0E0B0E0482A592A6A2A7B2A3196E032F10549F0000F111F21
:204B4000221F331FF694E794D794C794C5CF8B899C892B853C85820F931F02969C8F8B8F99
:204B60001A8E9A858A89981711F081E08A8F2B8D3C8D17C0CA0181709070892B61F0B694CE
:204B8000A7949794879480E090E0A0E0B0E8882A992AAA2ABB2A76956795579547952F5F21
:204BA0003F4F77FDE7CFC9010BC0440F551F661F771FB7FC4160880C991CAA1CBB1C0197F4
:204BC0004030A0E05A07A0E06A07A0E47A0768F39C8F8B8FDB01CA018F779070A070B07011
:204BE00080349105A105B10561F447FD0AC081149104A104B10429F0405C5F4F6F4F7F4F39
:204C000040784D8F5E8F6F8F78A383E0898FBE01675E7F4FCB010E940F27E0E1A0960C94F2
:204C2000C328A8E0B0E0E7E1F6E20C94AE289B01AC0183E08983DA01C9018827B7FD839583
:204C40009927AA27BB27B82E211531054105510519F482E089833AC08823A9F0203080E08A
:204C6000380780E0480780E8580729F460E070E080E09FEC30C0EE24FF248701E21AF30A41
:204C8000040B150B02C079018A018EE1C82ED12CDC82CB82ED82FE820F831887C801B70170
:204CA0000E94C22601971816190684F4082E04C0EE0CFF1C001F111F0A94D2F7ED82FE8259
:204CC0000F831887C81AD90ADC82CB82BA82CE0101960E940F27E9E028960C94CA28ACE014
:204CE000B0E0E5E7F6E20C94B52869837A838B839C83BE016B5F7F4FCE0101960E94EF2778
:204D00008D818230A9F1823098F1843021F48E81882359F40FC02F81388537FD29C06E81E6
:204D20002F31310564F0662329F020E030E040E050E822C02FEF3FEF4FEF5FE71DC08EE181
:204D400090E0821B930B29853A854B855C8504C056954795379527958A95D2F7662361F0B5
:204D600050954095309521953F4F4F4F5F4F04C020E030E040E050E0CA01B901E2E02C96F7
:204D80000C94D128EF92FF920F931F939B01AC01203080E0380781E0480780E0580780F4F9
:204DA0002F3F31054105510509F020F4EE24FF24870119C068E0E62EF12C012D112D13C058
:204DC000203080E0380780E0480781E0580730F490E1E92EF12C012D112D05C088E1E82EFC
:204DE000F12C012D112D80E290E0A0E0B0E08E199F09A00BB10B04C056954795379527957F
:204E0000EA94D2F7F901E05EFD4F2081821B9109A109B1091F910F91FF90EF9008959F925F
:204E2000AF92BF92CF92DF92EF92FF920F931F93EE24FF248701FC012481358146815781F4
:204E400091808081823010F44061A2C0843009F49BC0823029F420E030E040E050E005C087
:204E6000211531054105510519F4E0E0F0E092C0828193816FEF823896070CF05AC062E80F
:204E80007FEF681B790B6A3171052CF020E030E040E050E02AC0AA24BB24650181E090E042
:204EA000A0E0B0E0062E04C0880F991FAA1FBB1F0A94D2F70197A109B10982239323A42373
:204EC000B5230097A105B10529F071E0A72EB12CC12CD12C04C056954795379527956A95EF
:204EE000D2F72A293B294C295D29DA01C9018F779070A070B07080349105A105B10539F489
:204F000027FF09C0205C3F4F4F4F5F4F04C0215C3F4F4F4F5F4F80E090E0203060E0360794
:204F200060E0460760E4560710F081E090E0FC0123C08038910544F5FC01E158FF4FDA01AC
:204F4000C9018F779070A070B07080349105A105B10539F427FF09C0205C3F4F4F4F5F4F39
:204F600004C0215C3F4F4F4F5F4F57FF05C05695479537952795319687E0569547953795EB
:204F800027958A95D1F706C020E030E040E050E0EFEFF0E0E22EF32E942F9F77802F8078E9
:204FA000892B9E2F9795992797958F77082F092B9E2F9695812F8078892B97949924979480
:204FC0008F77182F1929C801B7011F910F91FF90EF90DF90CF90BF90AF909F900895CF93D9
:204FE000DF93FC01DB01208131819281492F4F7750E0991F9927991F8381E82FEE0FE92B36
:205000006E2F70E0881F8827881FED018983EE2371F5211531054105510511F482E02FC0D7
:205020006E577040FD017383628367E0220F331F441F551F6A95D1F783E08C930AC0220F3D
:20504000331F441F551FED018A819B8101979B838A832030E0E03E07E0E04E07E0E45E07BC
:2050600070F3ED012C833D834E835F8325C0EF3F79F4211531054105510519F484E08C93A5
:205080001BC044FF03C081E08C9311C01C920FC06F577040ED017B836A8383E08C9387E029
:2050A000220F331F441F551F8A95D1F75064FD012483358346835783DF91CF910895629F8D
:2050C000D001739FF001829FE00DF11D649FE00DF11D929FF00D839FF00D749FF00D659F81
:2050E000F00D9927729FB00DE11DF91F639FB00DE11DF91FBD01CF0111240895AA1BBB1B3F
:2051000051E107C0AA1FBB1FA617B70710F0A61BB70B881F991F5A95A9F780959095BC0110
:20512000CD01089597FB092E07260AD077FD04D0E5DF06D000201AF4709561957F4F0895BE
:20514000F6F7909581959F4F08952F923F924F925F926F927F928F929F92AF92BF92CF92E1
:20516000DF92EF92FF920F931F93CF93DF93CDB7DEB7CA1BDB0B0FB6F894DEBF0FBECDBF59
:2051800019942A88398848885F846E847D848C849B84AA84B984C884DF80EE80FD800C818C
:2051A0001B81AA81B981CE0FD11D0FB6F894DEBF0FBECDBFED010895AF92BF92CF92DF92ED
:2051C000EF92FF920F931F93CF93DF93EC01688179818A819B81611571058105910521F481
:2051E00064E279ED8BE597E02DE133EF41E050E00E94732B79018A0127EA31E440E050E0E0
:205200000E945F285B016C01C801B7012CEE34EF4FEF5FEF0E945F286A0D7B1D8C1D9D1DB7
:2052200097FF04C06150704080409048688379838A839B837F77CB01DF91CF911F910F9127
:20524000FF90EF90DF90CF90BF90AF9008950E94DC28089580E293E00E94DC280895A0E06C
:20526000B0E08093200390932103A0932203B09323030895F5D058F080E891E009F49EEF53
:20528000F6D028F040E851E059F45EEF09C0C0C028C1E92FE07803D168F3092E052AC1F352
:2052A000261737074807590738F00E2E07F8E02569F0E025E0640AC0EF6307F8009407FA0A
:2052C000DB01B9019D01DC01CA01AD01EF9341D0D5D00AD05F91552331F02BED3FE049E445
:2052E00050FD49EC7CC10895DF93DD27B92FBF7740E85FE31616170648075B0710F4D92F4E
:20530000F7D09F938F937F936F935AD1EEE4F1E082D0B4D02F913F914F915F91FAD0DD2390
:2053200049F09058A2EA2AED3FE049EC5FE3D0785D2766D1DF91A2C09AD040F091D030F023
:2053400021F45F3F19F05EC05111CCC061C0A7D098F39923C9F35523B1F3951B550BBB27DC
:20536000AA2762177307840738F09F5F5F4F220F331F441FAA1FA9F333D00E2E3AF0E0E88E
:2053800030D091505040E695001CCAF729D0FE2F27D0660F771F881FBB1F261737074807D1
:2053A000AB07B0E809F0BB0B802DBF01FF2793585F4F2AF09E3F510568F024C093C05F3F3E
:2053C000ECF3983EDCF3869577956795B795F7959F5FC9F7880F911D9695879597F90895D7
:2053E000E1E0660F771F881FBB1F621773078407BA0720F0621B730B840BBA0BEE1F88F736
:20540000E095089597F99F6780E870E060E008959FEF80EC0895DF93CF931F930F93FF92FF
:20542000EF92DF927B018C01689405C0DA2EEF0170D0FE01E894A59125913591459155918F
:20544000AEF3EF01DDD0FE019701A801DA9479F7DF90EF90FF900F911F91CF91DF910895B6
:2054600000240A941616170618060906089500240A9412161306140605060895092E0394C4
:20548000000C11F4882352F0BB0F40F4BF2B11F460FF04C06F5F7F4F8F4F9F4F089557FDA5
:2054A0009058440F551F59F05F3F71F04795880F97FB991F61F09F3F79F0879508951216BF
:2054C00013061406551FF2CF4695F1DF08C0161617061806991FF1CF86957105610508947F
:2054E0000895E894BB2766277727CB0197F908959B01AC0160E070E080E89FE3D4C0B0DFA7
:2055000028F0B5DF18F0952309F07CCF81CF1124E9CFC5DFA0F3959FD1F3950F50E0551F27
:20552000629FF001729FBB27F00DB11D639FAA27F00DB11DAA1F649F6627B00DA11D661FC4
:20554000829F2227B00DA11D621F739FB00DA11D621F839FA00D611D221F749F3327A00D2F
:20556000611D231F849F600D211D822F762F6A2F11249F5750408AF0E1F088234AF0EE0FC6
:20558000FF1FBB1F661F771F881F91505040A9F79E3F510570F036CFA5CF5F3FECF3983EE1
:2055A000DCF3869577956795B795F795E7959F5FC1F7FE2B880F911D9695879597F908950D
:2055C0009B01AC012FCAA8E1B0E042E050E00C94572B0E94652B272F0C94662B5058BB27B9
:2055E000AA270ED04BCF3CDF30F041DF20F031F49F3F11F41EF40CCF0EF4E095E7FB02CF58
:20560000E92F4DDF80F3BA17620773078407950718F071F49EF565CF0EF4E0950B2EBA2F2B
:20562000A02D0B01B90190010C01CA01A0011124FF27591B99F0593F50F4503E68F11A1682
:20564000F040A22F232F342F4427585FF3CF469537952795A795F0405395C9F77EF41F1692
:20566000BA0B620B730B840BBAF09150A1F0FF0FBB1F661F771F881FC2F70EC0BA0F621F54
:20568000731F841F48F4879577956795B795F7959E3F08F0B3CF9395880F08F09927EE0FD2
:2056A00097958795089553DEE9CEDC01CB01FC01F999FECF06C0F2BDE1BDF89A319600B4F8
:2056C0000D9241505040B8F70895262FF999FECF1FBA92BD81BD20BD0FB6F894FA9AF99A4F
:2056E0000FBE0196089597FB092E05260ED057FD04D014D00AD0001C38F45095409530952A
:2057000021953F4F4F4F5F4F0895F6F790958095709561957F4F8F4F9F4F0895A1E21A2E38
:20572000AA1BBB1BFD010DC0AA1FBB1FEE1FFF1FA217B307E407F50720F0A21BB30BE40B61
:20574000F50B661F771F881F991F1A9469F760957095809590959B01AC01BD01CF01089519
:20576000FFCF02FFFF190019000101010103FFFFFF05010101013A010101000000000000DF
:20578000000000010202030303030404040404040404050505050505050505050505050592
:2057A00005050606060606060606060606060606060606060606060606060606060606062B
:2057C0000606070707070707070707070707070707070707070707070707070707070707EB
:2057E0000707070707070707070707070707070707070707070707070707070707070707C9
:2058000007070808080808080808080808080808080808080808080808080808080808088A
:20582000080808080808080808080808080808080808080808080808080808080808080868
:20584000080808080808080808080808080808080808080808080808080808080808080848
:20586000080808080808080808080808080808080808080808080808080808080808080828
:20588000080801000000FFFFFFFFFFFFFFFFFFFFFFFFFFFFFFFFFFFFFFFFFFFFFFFFFFFF11
:2058A000FFFFFFFFFFFFFFFFFFFFFFFFFFFFFFFFFFFFFFFFFFFFFFFFFFFFFFFFFFFFFFFF08
:2058C000FFFFFFFFFFFFFFFFFFFFFFFFFFFFFFFFFFFFFFFFFFFFFFFFFFFFFFFFFFFFFFFFE8
:2058E000FFFFFFFFFFFFFFFFFFFFFFFFFFFFFFFFFFFFFFFFFFFFFFFFFFFFFFFFFFFFFFFFC8
:20590000FFFFFFFFFFFFFFFFFFFFFFFFFFFFFFFFFFFFFFFFFFFFFFFFFFFFFFFFFFFFFFFFA7
:020000040001F9
:20E000000D94F6F20D941DF30D941DF30D941DF30D941DF30D941DF30D941DF30D941DF3A0
:20E020000D941DF30D941DF30D941DF30D941DF30D941DF30D941DF30D941DF30D941DF358
:20E040000D941DF30D941DF30D941DF30D941DF30D941DF30D941DF30D941DF30D941DF338
:20E060000D941DF30D941DF30D941DF30D941DF30D941DF30D941DF30D941DF30D941DF318
:20E080000D941DF30D941DF30D941DF30D941DF30D941DF30D941DF30D941DF30D941DF3F8
:20E0A0000D941DF30D941DF30D941DF30D941DF30D941DF30D941DF30D941DF30D941DF3D8
:20E0C0000D941DF30D941DF30D941DF30D941DF30D941DF30D941DF30D941DF30D941DF3B8
:20E0E0000D941DF341546D656761323536300041726475696E6F206578706C6F72657220F0
:20E1000073746B3530305632206279204D4C5300426F6F746C6F616465723E004875683FDC
:20E1200000436F6D70696C6564206F6E20203D2000435055205479706520202020203D2071
:20E14000005F5F4156525F415243485F5F203D2000415652204C69624320566572203D2033
:20E16000004743432056657273696F6E20203D2000435055207369676E61747572653D20F8
:20E18000004C6F77206675736520202020203D2000486967682066757365202020203D204D
:20E1A00000457874206675736520202020203D20004C6F636B2066757365202020203D2025
:20E1C00000466562202037203230313200312E372E3100342E352E3100562320202041448D
:20E1E00044522020206F7020636F64652020202020696E737472756374696F6E20616464E4
:20E2000072202020496E74657272757074006E6F20766563746F7200726A6D702020006A6C
:20E220006D7020005768617420706F72743A00506F7274206E6F7420737570706F72746576
:20E2400064004D7573742062652061206C65747465720020005772697474696E6720454577
:20E260000052656164696E6720454500656570726F6D206572726F7220636F756E743D00E2
:20E28000504F525400303D5A65726F20616464726573732063747273003F3D435055207353
:20E2A0007461747300403D454550524F4D207465737400423D426C696E6B204C45440045D4
:20E2C0003D44756D7020454550524F4D00463D44756D7020464C41534800483D48656C70CE
:20E2E000004C3D4C69737420492F4F20506F72747300513D517569742026206A756D702067
:20E30000746F20757365722070676D00523D44756D702052414D00563D73686F7720696E67
:20E320007465727275707420566563746F727300593D506F727420626C696E6B002A0052DA
:20E340004553455400494E543000494E543100494E543200494E543300494E543400494E64
:20E36000543500494E543600494E5437005043494E5430005043494E5431005043494E54F6
:20E3800032005744540054494D45523020434F4D50410054494D45523020434F4D504200D9
:20E3A00054494D455230204F56460054494D45523120434150540054494D45523120434F43
:20E3C0004D50410054494D45523120434F4D50420054494D45523120434F4D50430054493B
:20E3E0004D455231204F56460054494D45523220434F4D50410054494D45523220434F4D08
:20E4000050420054494D455232204F56460054494D45523320434150540054494D455233FC
:20E4200020434F4D50410054494D45523320434F4D50420054494D45523320434F4D5043C1
:20E440000054494D455233204F56460054494D45523420434150540054494D4552342043E8
:20E460004F4D50410054494D45523420434F4D50420054494D45523420434F4D504300548E
:20E48000494D455234204F56460054494D45523520434150540054494D45523520434F4D5D
:20E4A00050410054494D45523520434F4D50420054494D45523520434F4D50430054494D52
:20E4C000455235204F56460055534152543020525800555341525430205544524500555325
:20E4E0004152543020545800555341525431205258005553415254312055445245005553F7
:20E500004152543120545800555341525432205258005553415254322055445245005553D3
:20E520004152543220545800555341525433205258005553415254332055445245005553B0
:20E540004152543320545800535049205354430041444300414E414C4F4720434F4D500016
:20E560004545205245414459005457490053504D205245414459002A003FE345E34AE34F13
:20E58000E354E359E35EE363E368E36DE374E37BE382E3E9E3F6E303E4ABE3B7E3C4E3D1BD
:20E5A000E3DEE386E393E3A0E348E5C8E4D2E4DEE454E550E560E50EE41AE427E434E441FD
:20E5C000E4E8E4F2E4FEE469E56DE54CE458E465E472E47FE48AE496E4A3E4B0E4BDE40819
:20E5E000E512E51EE528E532E53EE50011241FBECFEFD1E2DEBFCDBF01E00CBF12E0A0E02B
:20E60000B2E0E6E8FBEF02C005900D92A431B107D9F712E0A4E1B2E001C01D92A032B1075A
:20E62000E1F70F9493F40D94C2FD01E20EBF0FEF0DBF11241FBE0D9493F40D9400F0809320
:20E64000C6008091C00086FFFCCF8091C00080648093C00008958091C00087FFFCCF80917B
:20E66000C600089520E030E008C0E7EEF3E03197F1F700C000002F5F3F4F28173907A8F311
:20E680000895EF92FF920F931F93DF93CF930F92CDB7DEB77C010027F7FC0095102FD801A5
:20E6A000C701860F911DA11DB11DABBFFC018791882331F069830F941FF369816F5FEFCF61
:20E6C0000F90CF91DF911F910F91FF90EF9008958DE00F941FF38AE00F941FF308951F9340
:20E6E000182F80E892EE60E00F9441F3812F0F941FF30F9468F31F9108950F9441F30F94AA
:20E7000068F30895EF92FF92CF93DF93E82EE7017E01F92EE7018991882319F00F941FF30C
:20E72000FACFDF91CF91FF90EF9008951F93182F982F92959F70892F805D8A3308F0895F6D
:20E740000F941FF31F70812F805D8A3308F0895F0F941FF31F9108953F924F925F926F92A5
:20E760007F928F929F92AF92BF92CF92DF92EF92FF920F931F93DF93CF93CDB7DEB7669782
:20E780000FB6F894DEBF0FBECDBF682E7A018B01DB01CA0180509F4FAF4FBF4F8B8B9C8BE7
:20E7A000AD8BBE8B77242E010894411C511C8EE2382E91E0E91690E0F90691E0090790E002
:20E7C000190718F0802F0F9496F38F2D0F9496F38E2D0F9496F380E20F941FF38DE20F943E
:20E7E0001FF380E20F941FF319825701680188249924A62DA13049F0A13018F0A23061F44E
:20E8000009C0CBBEF501779007C0C5010F94ACFD782E02C0F5017080872D0F9496F380E240
:20E820000F941FF3872D805294012F7030708F3528F4240D351DD9017C9204C0240D351D37
:20E84000F90130820894A11CB11CC11CD11C0894811C911CF0E18F16910459F680E190E00B
:20E86000A0E0B0E0E80EF91E0A1F1B1F198AC2010F9482F30F9468F38B899C89AD89BE89E6
:20E88000E816F9060A071B0709F093CF66960FB6F894DEBF0FBECDBFCF91DF911F910F918A
:20E8A000FF90EF90DF90CF90BF90AF909F908F907F906F905F904F903F9008950F931F9304
:20E8C000CF93DF93EC018B01853691051CF4633071054CF0CE0164E670E00F9463FD862F24
:20E8E000805D0F941FF3CB30D1051CF4023011056CF0CE0164E670E00F9463FD6AE070E0FB
:20E900000F9463FD862F805D0F941FF3CE016AE070E00F9463FD805D0F941FF3DF91CF91DF
:20E920001F910F9108952F923F924F925F926F927F928F929F92AF92BF92CF92DF92EF923D
:20E94000FF920F931F93DF93CF93CDB7DEB7CB53D1400FB6F894DEBF0FBECDBF0F943EFD91
:20E96000279A2F9A8091C00082608093C00080E18093C40088E18093C1000000EE24FF24DD
:20E98000870188E5682E8BE1782E812C912CAA24BB2425C022E02A95F1F700C00894E11CDC
:20E9A000F11C011D111DB1E0AB2EB12C31E2E3163EE4F30630E0030730E0130710F4AA247A
:20E9C000BB24C801B701A40193010F9476FD611571058105910519F485B1805885B9809116
:20E9E000C00087FD03C0A114B104A1F2C50101968130910511F00D94F5FCC25EDE4F1882F5
:20EA000019821A821B82CE51D140662477244301CC24DD2433242224CE5DDE4F198218826E
:20EA2000C252D14040E050E0BA016BBFFA0167917691CA5CDE4F79836883C653D1400D947D
:20EA4000E8FC80E090E081309105C9F41FC00196A11DB11D8130E9E09E07EDE3AE07E0E098
:20EA6000BE0780F0CA5CDE4F88819981C653D140AFEF8F3F9A0719F0EE27FF27099480E073
:20EA800090E0DC01E091C000E7FFE1CFA091C600A13209F04AC50894C11CD11CB3E0CB16B6
:20EAA000D10409F044C50FC081E20F941FF301501040D1F70F9468F30894E108F108E114BE
:20EAC000F10459F40DC0342ECE5DDE4F39832883C252D140A5E0EA2EF12C09E110E0E4CF9A
:20EAE00010921C0210921D0210921E0210921F02109218021092190210921A0210921B021A
:20EB0000109214021092150210921602109217028FEE90EE60E00F947DF3C85CDE4F688286
:20EB200079828A829B82C853D14080E191EE60E00F9441F30F942BF3082F803608F00F7564
:20EB4000003230F0802F0F941FF380E20F941FF3083409F4C9C10934C0F4023409F45AC1E6
:20EB6000033460F40033A9F1003308F4D8C40F3309F445C0003409F0D2C4CAC0053409F4AB
:20EB800060C1063409F0CBC48AC1023509F412C20335C0F40C3409F4E6C1013509F0BFC4BD
:20EBA000C85CDE4F688079808A809B80C853D14082EF92EE62E00F947DF3CC24DD24BB24BC
:20EBC000B39404C5063509F41AC2093509F0A7C49BC385E892EE62E00F947DF31092180213
:20EBE0001092190210921A0210921B0210921C0210921D0210921E0210921F0202C189E9A0
:20EC000092EE62E00F947DF38FEE90EE60E00F947DF381E291EE60E00F9441F381EC91EEEC
:20EC200060E00F947DF381E391EE60E00F9441F384EE90EE60E00F947DF381E491EE60E020
:20EC40000F9441F386E090E061E070E00F945EF40F9468F381E691EE60E00F9441F383ED16
:20EC600091EE60E00F947DF381E591EE60E00F9441F38DEC91EE60E00F947DF381E791EE94
:20EC800060E00F9441F38EE10F9496F388E90F9496F381E00F9496F30F9468F381E891EEB2
:20ECA00060E00F9441F309E0E0E0F0E00093570084910F9496F30F9468F381E991EE60E072
:20ECC0000F9441F3E3E0F0E00093570084910F9496F30F9468F381EA91EE60E00F9441F3A0
:20ECE000E2E0F0E00093570084910F9496F30F9468F381EB91EE60E00F9441F3E1E0F0E0C6
:20ED00000093570084910F9496F30F9468F30DCF85EA92EE62E00F947DF385E592EE60E080
:20ED20000F947DF30F9468F300E010E011C0C8016E2D0F94B4FDEE2031F483E592EE60E00E
:20ED40000F9441F303C08E2D0F941FF30F5F1F4FC80181519F41AA2797FDA095BA2FABBF65
:20ED6000FC01E790EE2DEA3221F0F2E000301F07F1F60F9468F30F9468F381E692EE60E0A5
:20ED80000F947DF30F9468F3EE24FF2400E010E015C0C8010F94ACFDC82E882331F483E545
:20EDA00092EE60E00F9441F302C00F941FF3CB1419F00894E11CF11C0F5F1F4FC801815140
:20EDC0009F41AA2797FDA095BA2FABBFFC01B7902B2D2A3221F032E000301307D1F60F9497
:20EDE00068F30F9468F38CE692EE60E00F9441F3C70161E070E00F945EF40F9468F30F94C2
:20EE000068F3109214021092150210921602109217028BCE83EB92EE62E00F947DF3279A54
:20EE20002F9A0AC02F9884E690E00F9432F32F9A84E690E00F9432F38091C00087FFF2CF53
:20EE400068C38FEB92EE62E00F947DF34091140250911502609116027091170281E00F9432
:20EE6000ACF38091140290911502A0911602B091170280509F4FAF4FBF4F809314029093DB
:20EE80001502A0931602B0931702803040E1940740E0A40740E0B40708F447CEB2CF8DEC97
:20EEA00092EE62E00F947DF3409118025091190260911A0270911B0280E00F94ACF38091B8
:20EEC000180290911902A0911A02B0911B0280509F4FAF4FBF4F8093180290931902A093C9
:20EEE0001A02B0931B0221CE8AED92EE62E00F947DF385E892EE60E00F947DF389E992EE29
:20EF000060E00F947DF385EA92EE60E00F947DF383EB92EE60E00F947DF38FEB92EE60E0E1
:20EF20000F947DF38DEC92EE60E00F947DF38AED92EE60E00F947DF381EE92EE60E00F9456
:20EF40007DF382EF92EE60E00F947DF38CE093EE60E00F947DF387E193EE60E00F947DF381
:20EF600080E393EEDEC281EE92EE62E00F947DF381E40F946FF382E40F946FF383E40F94EA
:20EF80006FF384E40F946FF385E40F946FF386E40F946FF387E40F946FF388E40F946FF3E4
:20EFA0008AE40F946FF38BE40F946FF38CE40F946FF3BBCD8CE093EE62E00F947DF340915A
:20EFC0001C0250911D0260911E0270911F0282E00F94ACF380911C0290911D02A0911E027C
:20EFE000B0911F0280509F4FAF4FBF4F80931C0290931D02A0931E02B0931F0296CD87E1F0
