:020000023000CC
:10E000000D94F6F20D941DF30D941DF30D941DF374
:10E010000D941DF30D941DF30D941DF30D941DF33C
:10E020000D941DF30D941DF30D941DF30D941DF32C
:10E030000D941DF30D941DF30D941DF30D941DF31C
:10E040000D941DF30D941DF30D941DF30D941DF30C
:10E050000D941DF30D941DF30D941DF30D941DF3FC
:10E060000D941DF30D941DF30D941DF30D941DF3EC
:10E070000D941DF30D941DF30D941DF30D941DF3DC
:10E080000D941DF30D941DF30D941DF30D941DF3CC
:10E090000D941DF30D941DF30D941DF30D941DF3BC
:10E0A0000D941DF30D941DF30D941DF30D941DF3AC
:10E0B0000D941DF30D941DF30D941DF30D941DF39C
:10E0C0000D941DF30D941DF30D941DF30D941DF38C
:10E0D0000D941DF30D941DF30D941DF30D941DF37C
:10E0E0000D941DF341546D65676132353630004142
:10E0F000726475696E6F206578706C6F72657220DE
:10E1000073746B3530305632206279204D4C530099
:10E11000426F6F746C6F616465723E004875683F52
:10E1200000436F6D70696C6564206F6E20203D2028
:10E1300000435055205479706520202020203D2038
:10E14000005F5F4156525F415243485F5F203D2070
:10E1500000415652204C69624320566572203D2092
:10E16000004743432056657273696F6E20203D203F
:10E1700000435055207369676E61747572653D2068
:10E18000004C6F77206675736520202020203D208D
:10E1900000486967682066757365202020203D204F
:10E1A00000457874206675736520202020203D206E
:10E1B000004C6F636B2066757365202020203D2026
:10E1C000004F6374203133203230313500312E3727
:10E1D0002E3100342E352E3100562320202041448C
:10E1E00044522020206F7020636F6465202020201F
:10E1F00020696E737472756374696F6E20616464F4
:10E2000072202020496E74657272757074006E6F92
:10E2100020766563746F7200726A6D702020006AE8
:10E220006D7020005768617420706F72743A0050EE
:10E230006F7274206E6F7420737570706F72746576
:10E2400064004D7573742062652061206C65747480
:10E2500065720020005772697474696E67204545C5
:10E260000052656164696E6720454500656570729E
:10E270006F6D206572726F7220636F756E743D00F2
:10E28000504F525400303D5A65726F206164647281
:10E290006573732063747273003F3D435055207360
:10E2A0007461747300403D454550524F4D20746574
:10E2B000737400423D426C696E6B204C45440045CE
:10E2C0003D44756D7020454550524F4D00463D44CC
:10E2D000756D7020464C41534800483D48656C7050
:10E2E000004C3D4C69737420492F4F20506F72745D
:10E2F0007300513D517569742026206A756D702038
:10E30000746F20757365722070676D00523D44759F
:10E310006D702052414D00563D73686F7720696ED5
:10E320007465727275707420566563746F727300D1
:10E33000593D506F727420626C696E6B002A0052F6
:10E340004553455400494E543000494E543100491C
:10E350004E543200494E543300494E543400494E15
:10E36000543500494E543600494E54370050434905
:10E370004E5430005043494E5431005043494E549E
:10E3800032005744540054494D45523020434F4DBC
:10E3900050410054494D45523020434F4D504200AA
:10E3A00054494D455230204F56460054494D455230
:10E3B0003120434150540054494D45523120434F80
:10E3C0004D50410054494D45523120434F4D50422C
:10E3D0000054494D45523120434F4D50430054495C
:10E3E0004D455231204F56460054494D455232203A
:10E3F000434F4D50410054494D45523220434F4DFB
:10E4000050420054494D455232204F56460054491F
:10E410004D45523320434150540054494D455233E9
:10E4200020434F4D50410054494D45523320434FF6
:10E430004D50420054494D45523320434F4D5043B7
:10E440000054494D455233204F56460054494D45DE
:10E45000523420434150540054494D4552342043D6
:10E460004F4D50410054494D45523420434F4D507B
:10E47000420054494D45523420434F4D50430054BF
:10E48000494D455234204F56460054494D4552356A
:10E4900020434150540054494D45523520434F4D7F
:10E4A00050410054494D45523520434F4D50420094
:10E4B00054494D45523520434F4D50430054494D2A
:10E4C000455235204F564600555341525430205244
:10E4D000580055534152543020554452450055532D
:10E4E0004152543020545800555341525431205217
:10E4F000580055534152543120554452450055530C
:10E5000041525431205458005553415254322052F4
:10E5100058005553415254322055445245005553EA
:10E5200041525432205458005553415254332052D2
:10E5300058005553415254332055445245005553C9
:10E5400041525433205458005350492053544300EF
:10E5500041444300414E414C4F4720434F4D5000F2
:10E560004545205245414459005457490053504DA8
:10E57000205245414459002A003FE345E34AE34F16
:10E58000E354E359E35EE363E368E36DE374E37B41
:10E59000E382E3E9E3F6E303E4ABE3B7E3C4E3D107
:10E5A000E3DEE386E393E3A0E348E5C8E4D2E4DEF8
:10E5B000E454E550E560E50EE41AE427E434E44170
:10E5C000E4E8E4F2E4FEE469E56DE54CE458E46572
:10E5D000E472E47FE48AE496E4A3E4B0E4BDE408F2
:10E5E000E512E51EE528E532E53EE50011241FBEF3
:10E5F000CFEFD1E2DEBFCDBF01E00CBF12E0A0E063
:10E60000B2E0E8EAFBEF02C005900D92A431B10739
:10E61000D9F712E0A4E1B2E001C01D92A032B10727
:10E62000E1F70F9493F40D94D3FD01E20EBF0FEFC9
:10E630000DBF11241FBE0D9493F40D9400F0809330
:10E64000C6008091C00086FFFCCF8091C00080642E
:10E650008093C00008958091C00087FFFCCF809117
:10E66000C600089520E030E008C0E7EEF3E03197FF
:10E67000F1F700C000002F5F3F4F28173907A8F3BC
:10E680000895EF92FF920F931F93DF93CF930F9212
:10E69000CDB7DEB77C010027F7FC0095102FD8011D
:10E6A000C701860F911DA11DB11DABBFFC01879154
:10E6B000882331F069830F941FF369816F5FEFCF77
:10E6C0000F90CF91DF911F910F91FF90EF900895E0
:10E6D0008DE00F941FF38AE00F941FF308951F93AA
:10E6E000182F80E892EE60E00F9441F3812F0F9491
:10E6F0001FF30F9468F31F9108950F9441F30F9443
:10E7000068F30895EF92FF92CF93DF93E82EE7012D
:10E710007E01F92EE7018991882319F00F941FF3E8
:10E72000FACFDF91CF91FF90EF9008951F93182FAC
:10E73000982F92959F70892F805D8A3308F0895FAA
:10E740000F941FF31F70812F805D8A3308F0895F5B
:10E750000F941FF31F9108953F924F925F926F9213
:10E760007F928F929F92AF92BF92CF92DF92EF9261
:10E77000FF920F931F93DF93CF93CDB7DEB76697CA
:10E780000FB6F894DEBF0FBECDBF682E7A018B01A5
:10E79000DB01CA0180509F4FAF4FBF4F8B8B9C8BCB
:10E7A000AD8BBE8B77242E010894411C511C8EE248
:10E7B000382E91E0E91690E0F90691E0090790E023
:10E7C000190718F0802F0F9496F38F2D0F9496F35E
:10E7D0008E2D0F9496F380E20F941FF38DE20F9429
:10E7E0001FF380E20F941FF31982570168018824F8
:10E7F0009924A62DA13049F0A13018F0A23061F47F
:10E8000009C0CBBEF501779007C0C5010F94BDFDCF
:10E81000782E02C0F5017080872D0F9496F380E268
:10E820000F941FF3872D805294012F7030708F3515
:10E8300028F4240D351DD9017C9204C0240D351D0A
:10E84000F90130820894A11CB11CC11CD11C089490
:10E85000811C911CF0E18F16910459F680E190E043
:10E86000A0E0B0E0E80EF91E0A1F1B1F198AC201C2
:10E870000F9482F30F9468F38B899C89AD89BE89CC
:10E88000E816F9060A071B0709F093CF66960FB63C
:10E89000F894DEBF0FBECDBFCF91DF911F910F91D6
:10E8A000FF90EF90DF90CF90BF90AF909F908F90B0
:10E8B0007F906F905F904F903F9008950F931F93BC
:10E8C000CF93DF93EC018B01853691051CF4633007
:10E8D00071054CF0CE0164E670E00F9474FD862F54
:10E8E000805D0F941FF3CB30D1051CF4023011056D
:10E8F0006CF0CE0164E670E00F9474FD6AE070E0A5
:10E900000F9474FD862F805D0F941FF3CE016AE093
:10E9100070E00F9474FD805D0F941FF3DF91CF9131
:10E920001F910F9108952F923F924F925F926F9295
:10E930007F928F929F92AF92BF92CF92DF92EF928F
:10E94000FF920F931F93DF93CF93CDB7DEB7CB53D7
:10E95000D1400FB6F894DEBF0FBECDBF0F944FFD70
:10E960008DEF9FE00F94BDFD982F91509E3F18F4BE
:10E970008093660006C0609166008DEF9FE00F9463
:10E98000C5FD279A2F9A8091C00082608093C000B5
:10E9900080E18093C40088E18093C1000000EE24F0
:10E9A000FF24870188E5682E8BE1782E812C912C3D
:10E9B000AA24BB2425C022E02A95F1F700C00894C0
:10E9C000E11CF11C011D111DB1E0AB2EB12C31E297
:10E9D000E3163EE4F30630E0030730E0130710F4DB
:10E9E000AA24BB24C801B701A40193010F9487FD99
:10E9F000611571058105910519F485B1805885B9B6
:10EA00008091C00087FD03C0A114B104A1F2C5012B
:10EA100001968130910511F00D9406FDC25EDE4F26
:10EA2000188219821A821B82CE51D1406624772423
:10EA30004301CC24DD2433242224CE5DDE4F198211
:10EA40001882C252D14040E050E0BA016BBFFA01D7
:10EA500067917691CA5CDE4F79836883C653D14053
:10EA60000D94F9FC80E090E081309105C9F41FC05D
:10EA70000196A11DB11D8130E9E09E07EDE3AE07CF
:10EA8000E0E0BE0780F0CA5CDE4F88819981C65302
:10EA9000D140AFEF8F3F9A0719F0EE27FF27099477
:10EAA00080E090E0DC01E091C000E7FFE1CFA091C1
:10EAB000C600A13209F04AC50894C11CD11CB3E0BC
:10EAC000CB16D10409F044C50FC081E20F941FF3A7
:10EAD00001501040D1F70F9468F30894E108F10851
:10EAE000E114F10459F40DC0CE5DDE4F3983288363
:10EAF000C252D140342EA5E0EA2EF12C09E110E0FB
:10EB0000E4CF10921C0210921D0210921E0210926D
:10EB10001F02109218021092190210921A021092FB
:10EB20001B021092140210921502109216021092FB
:10EB300017028FEE90EE60E00F947DF3C85CDE4F1D
:10EB4000688279828A829B82C853D14080E191EEAB
:10EB500060E00F9441F30F942BF3082F803608F0F8
:10EB60000F75003230F0802F0F941FF380E20F9466
:10EB70001FF3083409F4C9C10934C0F4023409F49C
:10EB80005AC1033460F40033A9F1003308F4D8C447
:10EB90000F3309F445C0003409F0D2C4CAC00534AB
:10EBA00009F460C1063409F0CBC48AC1023509F406
:10EBB00012C20335C0F40C3409F4E6C1013509F082
:10EBC000BFC4C85CDE4F688079808A809B80C85350
:10EBD000D14082EF92EE62E00F947DF3CC24DD24ED
:10EBE000BB24B39404C5063509F41AC2093509F0EB
:10EBF000A7C49BC385E892EE62E00F947DF3109268
:10EC000018021092190210921A0210921B0210920E
:10EC10001C0210921D0210921E0210921F0202C1CD
:10EC200089E992EE62E00F947DF38FEE90EE60E062
:10EC30000F947DF381E291EE60E00F9441F381EC5B
:10EC400091EE60E00F947DF381E391EE60E00F942C
:10EC500041F384EE90EE60E00F947DF381E491EE59
:10EC600060E00F9441F386E090E061E070E00F9483
:10EC70005EF40F9468F381E691EE60E00F9441F347
:10EC800083ED91EE60E00F947DF381E591EE60E01D
:10EC90000F9441F38DEC91EE60E00F947DF381E7EA
:10ECA00091EE60E00F9441F38EE10F9496F388E9C2
:10ECB0000F9496F381E00F9496F30F9468F381E834
:10ECC00091EE60E00F9441F309E0E0E0F0E00093A2
:10ECD000570084910F9496F30F9468F381E991EEB5
:10ECE00060E00F9441F3E3E0F0E00093570084917B
:10ECF0000F9496F30F9468F381EA91EE60E00F941D
:10ED000041F3E2E0F0E00093570084910F9496F312
:10ED10000F9468F381EB91EE60E00F9441F3E1E032
:10ED2000F0E00093570084910F9496F30F9468F3EA
:10ED30000DCF85EA92EE62E00F947DF385E592EEC9
:10ED400060E00F947DF30F9468F300E010E011C0D1
:10ED5000C8016E2D0F94C5FDEE2031F483E592EECF
:10ED600060E00F9441F303C08E2D0F941FF30F5FEB
:10ED70001F4FC80181519F41AA2797FDA095BA2F27
:10ED8000ABBFFC01E790EE2DEA3221F0F2E000305B
:10ED90001F07F1F60F9468F30F9468F381E692EE83
:10EDA00060E00F947DF30F9468F3EE24FF2400E0FD
:10EDB00010E015C0C8010F94BDFDC82E882331F4A2
:10EDC00083E592EE60E00F9441F302C00F941FF3CD
:10EDD000CB1419F00894E11CF11C0F5F1F4FC80100
:10EDE00081519F41AA2797FDA095BA2FABBFFC0187
:10EDF000B7902B2D2A3221F032E000301307D1F6E4
:10EE00000F9468F30F9468F38CE692EE60E00F9431
:10EE100041F3C70161E070E00F945EF40F9468F372
:10EE20000F9468F3109214021092150210921602B9
:10EE3000109217028BCE83EB92EE62E00F947DF37B
:10EE4000279A2F9A0AC02F9884E690E00F9432F305
:10EE50002F9A84E690E00F9432F38091C00087FFF0
:10EE6000F2CF68C38FEB92EE62E00F947DF3409196
:10EE7000140250911502609116027091170281E000
:10EE80000F94ACF38091140290911502A091160298
:10EE9000B091170280509F4FAF4FBF4F8093140225
:10EEA00090931502A0931602B0931702803040E1B0
:10EEB000940740E0A40740E0B40708F447CEB2CF7F
:10EEC0008DEC92EE62E00F947DF340911802509128
:10EED000190260911A0270911B0280E00F94ACF34A
:10EEE0008091180290911902A0911A02B0911B0210
:10EEF00080509F4FAF4FBF4F8093180290931902DD
:10EF0000A0931A02B0931B0221CE8AED92EE62E02A
:10EF10000F947DF385E892EE60E00F947DF389E92C
:10EF200092EE60E00F947DF385EA92EE60E00F943C
:10EF30007DF383EB92EE60E00F947DF38FEB92EE26
:10EF400060E00F947DF38DEC92EE60E00F947DF322
:10EF50008AED92EE60E00F947DF381EE92EE60E038
:10EF60000F947DF382EF92EE60E00F947DF38CE0DE
:10EF700093EE60E00F947DF387E193EE60E00F94F1
:10EF80007DF380E393EEDEC281EE92EE62E00F94B9
:10EF90007DF381E40F946FF382E40F946FF383E4C5
:10EFA0000F946FF384E40F946FF385E40F946FF381
:10EFB00086E40F946FF387E40F946FF388E40F9463
:10EFC0006FF38AE40F946FF38BE40F946FF38CE488
:10EFD0000F946FF3BBCD8CE093EE62E00F947DF362
:10EFE00040911C0250911D0260911E0270911F02FF
:10EFF00082E00F94ACF380911C0290911D02A091CD
:10F000001E02B0911F0280509F4FAF4FBF4F8093A1
:10F010001C0290931D02A0931E02B0931F0296CD76
:10F0200087E193EE62E00F947DF384EE90EE60E072
:10F030000F947DF389ED91EE60E00F947DF344240D
:10F040005524662477244301C401B301969587951E
:10F0500077956795CC5DDE4F688379838A839B8340
:10F06000C452D1400894411C511CC20162E070E0BE
:10F070000F945EF480E20F941FF38DE20F941FF360
:10F0800080E20F941FF3CB5DDE4F8881C552D140E3
:10F090000F9496F3CC5DDE4F8881C452D1400F941B
:10F0A00096F380E20F941FF38DE30F941FF380E239
:10F0B0000F941FF38BBEF301C7908C2D90E0A0E05E
:10F0C000B0E0C85DDE4F88839983AA83BB83C852B2
:10F0D000D140D401C3010196A11DB11DABBFFC01FC
:10F0E000A7912A2F30E040E050E0C45DDE4F288336
:10F0F00039834A835B83CC52D140EE24F22E032F16
:10F10000142FC85DDE4F488159816A817B81C852C6
:10F11000D140E40EF51E061F171FC401B3016D5F39
:10F120007F4F8F4F9F4FA40193012E5F3F4F4F4F53
:10F130005F4F4BBFF901279024E030E040E050E002
:10F14000620E731E841E951E8BBFFB01A7908A2F33
:10F150000F9496F380E20F941FF38C2D0F9496F387
:10F1600080E20F941FF38A2D0F9496F380E20F94A0
:10F170001FF3822D0F9496F380E20F941FF33FEF5D
:10F18000E3163FEFF30630E0030730E0130731F4F6
:10F190008EE092EE60E00F9441F3ACC0A8019701BD
:10F1A0002070307C40705070203060EC360760E09A
:10F1B000460760E0560701F57FEFA72E7FE3B72EE5
:10F1C000C12CD12CAE20BF20C022D122CC5DDE4F7D
:10F1D000E880F9800A811B81C452D140EA0CFB1CF3
:10F1E0000C1D1D1DEE0CFF1C001F111F88E192EE6F
:10F1F00060E00F9441F369C0D801C7018E709E7F13
:10F20000A070B0708C3074E9970770E0A70770E0C9
:10F21000B70709F06FC0BB24CC24DD24DC2CCB2C39
:10F22000BA2CAA24A20CB11CC11CD11CC85DDE4F93
:10F2300088819981AA81BB81C852D1408170907028
:10F24000A070B070DC0199278827A80EB91ECA1ECD
:10F25000DB1EC85DDE4F88819981AA81BB81C852BF
:10F26000D140807F9070A070B07031E1880F991FFD
:10F27000AA1FBB1F3A95D1F7A80EB91ECA1EDB1EE6
:10F28000C45DDE4F88819981AA81BB81CC52D14077
:10F2900081709070A070B07025E1880F991FAA1F2F
:10F2A000BB1F2A95D1F7A80EB91ECA1EDB1E860108
:10F2B0007501EE0CFF1C001F111F8FE192EE60E044
:10F2C0000F9441F38C2D0F9496F38B2D0F9496F39E
:10F2D0008A2D0F9496F380E20F941FF38EE30F9420
:10F2E0001FF3802F0F9496F38F2D0F9496F38E2D8E
:10F2F0000F9496F380E20F941FF3C201880F991FB9
:10F3000089589A41AA2797FDA095BA2FABBFFC0157
:10F310008791969160E00F9441F30F9468F389E32D
:10F320004816510409F090CE11CC80E393EE62E0D0
:10F330000F947DF384E292EE60E00F9441F30F941A
:10F340002BF3082F0F75802F0F941FF30F9468F382
:10F35000802F81548A3108F0F0C0063409F477C058
:10F36000073490F4033409F442C0043430F4013417
:10F37000F1F0023409F0DBC02AC0043409F447C0BC
:10F38000053409F0D4C053C00A3409F494C00B34D6
:10F3900038F4073409F46BC0083409F0C8C077C0EA
:10F3A0000B3409F49CC00C3409F0C1C0ACC08FEF21
:10F3B00081B907C082B1809582B988EC90E00F9442
:10F3C00032F38091C00087FFF5CF12B8B3C08FEF42
:10F3D00084B907C085B1809585B988EC90E00F9419
:10F3E00032F38091C00087FFF5CF15B8A3C08FEF2F
:10F3F00087B907C088B1809588B988EC90E00F94F0
:10F4000032F38091C00087FFF5CF18B893C08FEF1B
:10F410008AB907C08BB180958BB988EC90E00F94C6
:10F4200032F38091C00087FFF5CF1BB883C08FEF08
:10F430008DB907C08EB180958EB988EC90E00F949D
:10F4400032F38091C00087FFF5CF1EB873C08FEFF5
:10F4500080BB07C081B3809581BB88EC90E00F949E
:10F4600032F38091C00087FFF5CF11BA63C08FEFF0
:10F4700083BB07C084B3809584BB88EC90E00F9475
:10F4800032F38091C00087FFF5CF14BA53C08FEFDD
:10F490008093010109C0809102018095809302014F
:10F4A00088EC90E00F9432F38091C00087FFF3CF97
:10F4B000109202013FC08FEF8093040109C0809138
:10F4C000050180958093050188EC90E00F9432F35C
:10F4D0008091C00087FFF3CF109205012BC08FEF02
:10F4E0008093070109C080910801809580930801ED
:10F4F00088EC90E00F9432F38091C00087FFF3CF47
:10F500001092080117C08FEF80930A0109C0809103
:10F510000B01809580930B0188EC90E00F9432F3FF
:10F520008091C00087FFF3CF10920B0103C08FE2E0
:10F5300092EE08C00F942BF309CB82E492EE02C046
:10F540008CE191EE60E00F947DF300CBCC24DD24C0
:10F55000533001F1543028F4513071F05230A8F496
:10F5600007C0553031F15530E0F05630A9F530C0C4
:10F57000AB3109F077CA5EC2A13019F0A41709F0C7
:10F580005EC22A264A2F52E06DCA7A2F60E02A26F0
:10F5900053E068CA8A2F90E0682B792B2A2654E022
:10F5A00061CAAE3009F04BC22A2620E030E055E0B7
:10F5B00059CAE1E0F0E0EC0FFD1FE20FF31FA0835A
:10F5C0002F5F3F4F2A262617370709F04BCA3AC24A
:10F5D000A21509F034C203C0573009F043CACE5D0A
:10F5E000DE4F39832883C252D140342EBB24398167
:10F5F000333109F4F2C03431C8F4363009F4C1C0F3
:10F60000373050F4323009F46AC1333009F457C04E
:10F61000313009F0BAC13DC0313109F45DC0323139
:10F6200008F0A3C0303109F0B0C159C1383109F434
:10F630006FC0393150F4353109F4CFC0353108F499
:10F6400050C1363109F0A1C14CC13A3109F454C05E
:10F650003A3108F479C03B3109F441C03D3109F039
:10F6600094C19D81903339F48F81882331F08130AA
:10F6700031F488E905C080E003C08EE101C081E07B
:10F680001A821B829C831D828E831F8207E010E0FA
:10F6900080C11A8288E08B8381E48C8386E58D8328
:10F6A00082E58E8389E48F8383E5888780E5898777
:10F6B0008FE58A8782E38B870BE010E06AC1EA81DD
:10F6C000E058E33128F4F0E0E050FE4F808101C0C3
:10F6D00080E01A828B8346C0BB24B39400C18D8125
:10F6E000882321F0813021F488E903C08EE101C034
:10F6F00081E01A828B8308C01A82E1E0F0E089E0A1
:10F7000080935700E491EB831C8204E010E041C138
:10F710008B81803589F48C81883039F4E2E0F0E027
:10F7200089E080935700E4910DC0E0E0F0E089E0CB
:10F7300080935700E49106C0E3E0F0E089E0809315
:10F740005700E4911A82DFCF8D81836C99E0E1E06C
:10F75000F0E0082E90935700E89507B600FCFDCF27
:10F760001A821B8203E010E014C11A8202E010E04A
:10F77000C25EDE4F188219821A821B82CE51D1409E
:10F7800008C16A80772488249924962C88247724B9
:10F7900066248B8190E0A0E0B0E0DC019927882707
:10F7A000682A792A8A2A9B2A8D8190E0A0E0B0E01D
:10F7B000682A792A8A2A9B2A8C8190E0A0E0B0E00E
:10F7C000BA2FA92F982F8827682A792A8A2A9B2A54
:10F7D000660C771C881C991C82C08A812B8133316E
:10F7E00009F07DC0C25EDE4F488159816A817B810C
:10F7F000CE51D140403090EC590793E0690790E03A
:10F800007907F0F493E0FA0160935B00909357005E
:10F81000E89507B600FCFDCFC25EDE4F48815981F6
:10F820006A817B81CE51D14040505F4F6F4F7F4FF7
:10F83000C25EDE4F488359836A837B83CE51D140B9
:10F84000CF5CDE4F8883C153D140C05DDE4F18824C
:10F85000C053D14030E0C05DDE4F68817981C05334
:10F86000D140262B372BD401C301BE01655F7F4FEA
:10F8700001E0FB01408151816E5F7F4FCD5CDE4F27
:10F880005883C353D140CE5CDE4F1882C253D1405F
:10F8900050E0CE5CDE4FE881F981C253D1404E2B5F
:10F8A0005F2B0A01FC01A0935B0000935700E895D1
:10F8B00011240296A11DB11D22503040D1F625E041
:10F8C000F30180925B0020935700E89507B600FC97
:10F8D000FDCF21E120935700E8953C014D011A82AC
:10F8E00056C0FA81CB5CDE4FF883C553D140CC5C67
:10F8F000DE4F1882C453D1408B8190E0CC5CDE4F48
:10F9000048815981C453D140842B952B8C010D5FC4
:10F910001F4F1A82DE0113963431A1F4A401930122
:10F920004BBFF901679176916C9311967C93119777
:10F9300012962E5F3F4F4F4F5F4F029789F7390165
:10F940004A0121C0FD0101979C0140E050E02F5F7A
:10F950003F4F4F4F5F4F260D371D481D591D61BC4E
:10F96000BB27A92D982D872D82BD0894611C711C81
:10F97000811C911CF89A80B58193DF016216730691
:10F980008406950661F71C9204C080EC8A8302E02D
:10F9900010E08BE10F941FF3832D0F941FF3812F41
:10F9A0000F941FF3802F0F941FF38EE00F941FF31B
:10F9B00025E1222E2324202621267E010894E11C05
:10F9C000F11C09C0D701AD907D018A2D0F941FF362
:10F9D0002A240150104001151105A1F7822D0F9422
:10F9E0001FF385B1805885B9BB2081F4339480E042
:10F9F00090E060E070E0A0E0CE5DDE4F28813981CC
:10FA0000C252D1405A2F432D0D9434F527982F9888
:10FA100084E690E00F9432F300008091C0008D7F67
:10FA20008093C00081E180935700E895EE27FF277F
:10FA30000994FFCF9BE1292E51E00D9432F550E05F
:10FA40000D9432F556E00D9432F5982F977090642E
:10FA500090937C0020917B0086958695869590E01A
:10FA60008170907033E0880F991F3A95E1F7277FF6
:10FA7000282B20937B0080917A00806480937A0009
:10FA800080917A0086FDFCCF20917800309179003A
:10FA9000932F80E030E0282B392BC90108958FEF98
:10FAA00081B912B897EF94B920EE25B920EF27B9A4
:10FAB00020EB28B92CEF2AB923E02BB98DB91EB859
:10FAC00010BA83BB28E024BB80930101109202018D
:10FAD0002FE02093040120930501109207018093E9
:10FAE0000A0190930B01089597FB092E07260AD06F
:10FAF00077FD04D02ED006D000201AF470956195C1
:10FB00007F4F0895F6F7909581959F4F0895A1E254
:10FB10001A2EAA1BBB1BFD010DC0AA1FBB1FEE1F87
:10FB2000FF1FA217B307E407F50720F0A21BB30BD2
:10FB3000E40BF50B661F771F881F991F1A9469F74E
:10FB400060957095809590959B01AC01BD01CF01AA
:10FB50000895AA1BBB1B51E107C0AA1FBB1FA61714
:10FB6000B70710F0A61BB70B881F991F5A95A9F766
:10FB700080959095BC01CD010895F999FECF92BD75
:10FB800081BDF89A992780B50895262FF999FECF5F
:10FB90001FBA92BD81BD20BD0FB6F894FA9AF99AAA
:08FBA0000FBE01960895FFCF8E
:10FBA800000000000000000000000000000000004D
:04FBB8000F020A002E
:040000033000E000E9
:00000001FF
